S01600002E2F44656275672F5254532D4C61622E73313936
S3152000000000BFDFF814D005F06AFF06F063FE05F0A6
S3152000001078BFFEE700BF000000C0012080B584B095
S3152000002002AF786000230093044B7A6800210020F9
S3152000003004F0D8F900BF0837BD4680BD4100002036
S3152000004080B586B002AF78607B689B692E4A52F8ED
S3152000005023202E4B1B681A447B685B6913442C4A69
S3152000006052F82330FB607B68DB6807EE903AB8EEE7
S31520000070E77A7B689B69274A9B001344D3ED007A75
S3152000008067EE277AFDEEE77A17EE903ABB607B683B
S31520000090DA69FB680093204B0021002004F0A2F9C6
S315200000A07B68DA69012300931C4B0021002004F0B1
S315200000B099F97B681B69BA68D31A642202FB03F09C
S315200000C07B68DA6900230093144B002104F08AF937
S315200000D07B689B691F2B03D17B6800229A6104E011
S315200000E07B689B695A1C7B689A61BB68642202FB09
S315200000F003F0002300930A4B7A68002104F072F97A
S3152000010000BF1037BD4680BD58A9002054A9002045
S31520000110E0580120D8A90020336E0020C16D0020B0
S315200001204100002080B584B000AF786039603B681C
S31520000130F02B01DDF0233B603B683B2B01DC3C23AD
S315200001403B607B683A689A607B689B683C2292FB9E
S31520000150F3F34FF47A7202FB03F3FB60F9687868D5
S3152000016000F004F800BF1037BD4680BD80B483B0D0
S3152000017000AF786039607B683A68DA6000BF0C3778
S31520000180BD465DF8047B704780B483B000AF7860CD
S3152000019039607B683A681A6100BF0C37BD465DF846
S315200001A0047B704780B483B000AF786039607B6889
S315200001B03A685A6100BF0C37BD465DF8047B70472C
S315200001C080B483B000AF0346FB71FB7903F01F03B5
S315200001D0012202FA03F1064A97F907305B0942F831
S315200001E0231000BF0C37BD465DF8047B704700BF67
S315200001F000E100E080B483B000AF03463960FB71B4
S3152000020097F90730002B0BDA3B68DAB20C49FB79F9
S3152000021003F00F03043B1201D2B20B441A7609E015
S315200002203B68DAB2074997F907301201D2B20B447C
S3152000023083F8002300BF0C37BD465DF8047B70476A
S3152000024000ED00E000E100E080B582B000AF78600C
S31520000250396000220121074802F0FFFD0221172004
S31520000260FFF7C8FF1720FFF7ABFF00BF0837BD46D3
S3152000027080BD00BF0004024080B582B000AF786028
S3152000028039607B689B688021184602F07AFD034618
S3152000029018460837BD4680BD80B582B000AF78606D
S315200002A039607B689B683A68D2B20121184602F011
S315200002B0D4FD00BF0837BD4680BD80B582B000AFF3
S315200002C0786039607B689B680121184602F0ECFD56
S315200002D000BF0837BD4680BD80B584B000AF7860CA
S315200002E0396007F10803184603F0EEF88023BB6057
S315200002F000233B733B68002B01D0082300E00C232E
S315200003007B730123BB7307F10803184603F06AF8D1
S3152000031000BF1037BD4680BD80B584B002AF78607F
S315200003203960802003F022F90346012B14D1802066
S3152000033003F036F97B68DB68002B10D07B68DA681F
S315200003407B681B69002100910021002004F04AF8F7
S31520000350054B01221A6002E0044803F009FC002341
S3152000036018460837BD4680BDB8580120B0A50020E4
S3152000037080B582B000AF78607B68D3F8A83FB3F52C
S31520000380FA7F05D004F0EAF90346034A136000E039
S3152000039000BF0837BD4680BD60D5002090B585B02A
S315200003A000AF786039607B68D3F8A83FB3F5FA7F51
S315200003B046D004F0D3F90346234A1360224B1A6829
S315200003C0224B1B68D31A224A1360214B1B68214AF1
S315200003D082FB03125113DA178A1A1F4901FB02F214
S315200003E09A1A13469B0013445B00FB60F86807F0DB
S315200003F023FE7B6803F57B63D3E9002308F016F917
S315200004000346002B09D0F86807F016FE02460B4675
S31520000410796801F57B61C1E900237B68D3F8A84F91
S31520000420621C7B68C3F8A82FF86807F005FE024611
S315200004300B467868611CC9000144C1E9002300E02D
S3152000044000BF1437BD4690BD68D5002060D500207A
S3152000045064D5002089B5F814A086010080B483B045
S3152000046000AF78607B6803F57B63D3E9002343EC18
S31520000470172BB0EE470AF0EE670A0C37BD465DF83B
S31520000480047B704780B586B000AF78604FF00002DD
S315200004904FF00003C7E904230023FB6011E07A68CC
S315200004A0FB680133DB001344D3E90023D7E90401B9
S315200004B007F076FC02460B46C7E90423FB680133A6
S315200004C0FB607B68D3F8A83FFA689A42E7DB7B6833
S315200004D0D3F8A83F184607F0AFFD02460B46D7E9EA
S315200004E0040107F03DFF02460B4643EC172BB0EE06
S315200004F0470AF0EE670A1837BD4680BD80B582B040
S3152000050000AF78607B683B4A934208D101211020D6
S3152000051007F09AF90021102007F096F965E07B682C
S31520000520354A93420AD101214FF4003007F06CF985
S3152000053000214FF4003007F067F956E07B682F4A18
S3152000054093420AD101214FF4802007F05DF9002162
S315200005504FF4802007F058F947E07B68284A9342F9
S315200005600AD101214FF4002007F04EF900214FF463
S31520000570002007F049F938E07B68224A93420AD1E5
S3152000058001214FF4801007F03FF900214FF480102D
S3152000059007F03AF929E07B681B4A934208D10121EA
S315200005A0202007F051F90021202007F04DF91CE00A
S315200005B07B68164A93420AD101214FF0804007F00A
S315200005C023F900214FF0804007F01EF90DE07B68EB
S315200005D00F4A934209D101214FF0004007F014F948
S315200005E000214FF0004007F00FF900BF0837BD4645
S315200005F080BD00BF0010014000440040004800407C
S31520000600004C00400050004000140140007800409B
S31520000610007C004080B58AB000AF78603960002346
S315200006207B6200233B620023FB610023BB617B6866
S315200006301B8A9BB27B627B6A23F440537B623B68B6
S31520000640DB881A467B6A13437B627B6A9AB27B6895
S315200006501A827B689B899BB27B627B6A23F4B053A8
S3152000066023F00C037B623B689A883B681B89134303
S315200006709AB23B685B8913439BB21A467B6A134343
S315200006807B627B6A9AB27B689A817B689B8A9BB2E3
S315200006907B627B6A23F440737B623B689B891A46A4
S315200006A07B6A13437B627B6A9AB27B689A8207F1E4
S315200006B00803184606F0F2FD7B68304A934203D0C1
S315200006C07B682F4A934202D17B693B6201E03B69FA
S315200006D03B627B689B899BB21BB2002B0CDA3A6A81
S315200006E013469B0013449A001A443B681B685B0020
S315200006F0B2FBF3F3FB610BE03A6A13469B0013440B
S315200007009A001A443B681B689B00B2FBF3F3FB611B
S31520000710FB691C4AA2FB03235B091B017B627B6AE4
S315200007201B09642202FB03F3FA69D31ABB617B68B7
S315200007309B899BB21BB2002B0CDABB69DB003233E0
S31520000740104AA2FB03235B0903F007037A6A1343CB
S315200007507B620BE0BB691B0132330A4AA2FB0323EF
S315200007605B0903F00F037A6A13437B627B6A9AB2B2
S315200007707B681A8100BF2837BD4680BD0010014026
S31520000780001401401F85EB5180B483B000AF786020
S315200007907B684FF416521A607B6800229A807B6829
S315200007A00022DA807B6800221A817B680C225A811B
S315200007B07B6800229A8100BF0C37BD465DF8047B1A
S315200007C0704780B485B000AF786039600023FB6045
S315200007D07B681B8A9BB2FB60FB6823F47063FB601B
S315200007E03B681A883B685B8813439AB23B689B88B0
S315200007F013439AB23B68DB8813439BB21A46FB68C5
S315200008001343FB60FB689AB27B681A8200BF1437D9
S31520000810BD465DF8047B704780B483B000AF786036
S315200008207B6800221A807B6800225A807B6800221F
S315200008309A807B680022DA8000BF0C37BD465DF8BF
S31520000840047B704780B483B000AF78600B46FB70A2
S31520000850FB78002B08D07B689B899BB243F400531E
S315200008609AB27B689A8107E07B689B899BB223F4C6
S3152000087000539AB27B689A8100BF0C37BD465DF85B
S31520000880047B704780B483B000AF78600B46FB7062
S315200008907B681B8B9BB223F0FF039AB27B681A837B
S315200008A07B681B8B9AB2FB789BB213439AB27B6808
S315200008B01A8300BF0C37BD465DF8047B704780B4B1
S315200008C083B000AF78600B46FB70FB78002B0AD014
S315200008D07B689B899BB26FEA43436FEA53439AB284
S315200008E07B689A8107E07B689B899BB2C3F30E03E2
S315200008F09AB27B689A8100BF0C37BD465DF8047BAF
S31520000900704780B483B000AF78600B46FB70FB78ED
S31520000910002B08D07B689B8A9BB243F400639AB273
S315200009207B689A8207E07B689B8A9BB223F40063EC
S315200009309AB27B689A8200BF0C37BD465DF8047B6D
S31520000940704780B483B000AF78600B467B807B888D
S31520000950C3F308039AB27B689A8000BF0C37BD4662
S315200009605DF8047B704780B483B000AF78607B6805
S315200009709B889BB2C3F308039BB218460C37BD462F
S315200009805DF8047B704780B483B000AF78600B4677
S31520000990FB707B681B8A9BB223F00F039AB27B689D
S315200009A01A827B681B8A9AB2FB789BB213439AB24F
S315200009B07B681A8200BF0C37BD465DF8047B704702
S315200009C080B483B000AF78600B46FB70FB78002BB9
S315200009D008D07B689B899BB243F002039AB27B685E
S315200009E09A8107E07B689B899BB223F002039AB227
S315200009F07B689A8100BF0C37BD465DF8047B704743
S31520000A0080B483B000AF78600B467B807B689B897F
S31520000A109BB223F400639AB27B689A817B689B8998
S31520000A209AB27B8813439AB27B689A8100BF0C37AF
S31520000A30BD465DF8047B704780B483B000AF786014
S31520000A400B467B807B681B8A9BB223F020039AB2DD
S31520000A507B681A827B681B8A9AB27B8813439AB278
S31520000A607B681A8200BF0C37BD465DF8047B704751
S31520000A7080B483B000AF78600B46FB70FB78002B08
S31520000A8008D07B681B8A9BB243F480439AB27B686A
S31520000A901A8207E07B681B8A9BB223F480439AB2B2
S31520000AA07B681A8200BF0C37BD465DF8047B704711
S31520000AB080B483B000AF78607B689B899BB243F09B
S31520000AC001039AB27B689A8100BF0C37BD465DF858
S31520000AD0047B704780B483B000AF78600B46FB7010
S31520000AE0FB78002B08D07B689B8A9BB243F00803D7
S31520000AF09AB27B689A8207E07B689B8A9BB223F036
S31520000B0008039AB27B689A8200BF0C37BD465DF80F
S31520000B10047B704780B483B000AF78600B46FB70CF
S31520000B207B681B8B9BB2DBB29AB27B681A837B688D
S31520000B301B8B9AB2FB789BB21B029BB213439AB2D1
S31520000B407B681A8300BF0C37BD465DF8047B70476F
S31520000B5080B483B000AF78600B46FB70FB78002B27
S31520000B6008D07B689B8A9BB243F020039AB27B68AD
S31520000B709A8207E07B689B8A9BB223F020039AB275
S31520000B807B689A8200BF0C37BD465DF8047B7047B0
S31520000B9080B483B000AF78600B46FB70FB78002BE7
S31520000BA008D07B689B8A9BB243F010039AB27B687D
S31520000BB09A8207E07B689B8A9BB223F010039AB245
S31520000BC07B689A8200BF0C37BD465DF8047B704770
S31520000BD080B483B000AF78600B467B807B689B8AAD
S31520000BE09BB223F004039AB27B689A827B689B8A25
S31520000BF09AB27B8813439AB27B689A8200BF0C37DD
S31520000C00BD465DF8047B704780B483B000AF786042
S31520000C100B46FB70FB78002B08D07B689B8A9BB227
S31520000C2043F002039AB27B689A8207E07B689B8A2C
S31520000C309BB223F002039AB27B689A8200BF0C37DC
S31520000C40BD465DF8047B704780B483B000AF786002
S31520000C500B467B8013467B707B78002B08D07B6805
S31520000C609B8A9AB27B8813439AB27B689A8209E060
S31520000C707B689B8A9AB27B88DB439BB213409AB2ED
S31520000C807B689A8200BF0C37BD465DF8047B7047AF
S31520000C9080B487B000AF78600B467B8013467B70AC
S31520000CA000233B610023FB600023BB6000237B61A4
S31520000CB07B687B617B88DBB25B09DBB23B617B882F
S31520000CC003F01F03FB600122FB6802FA03F3BB60FB
S31520000CD03B69012B03D17B690C337B6109E03B69BE
S31520000CE0022B03D17B6910337B6102E07B691433CD
S31520000CF07B617B78002B06D07B6919687B69BA6893
S31520000D000A431A6006E07B691968BB68DA437B6987
S31520000D100A401A6000BF1C37BD465DF8047B704749
S31520000D2080B485B000AF78600B467B800023FB73D0
S31520000D307B681B889AB27B8813409BB2002B02D01B
S31520000D400123FB7301E00023FB73FB7B184614375A
S31520000D50BD465DF8047B704780B483B000AF7860F1
S31520000D600B467B807B88DB439AB27B681A8000BF68
S31520000D700C37BD465DF8047B704780B487B000AF62
S31520000D8078600B467B800023FB6000237B61002379
S31520000D90BB600023FB747B88DBB25B09DBB2BB60E4
S31520000DA07B8803F01F037B6101227B6902FA03F330
S31520000DB07B61BB68012B07D17B689B899BB21A4656
S31520000DC07B6913407B6111E0BB68022B07D17B68EE
S31520000DD01B8A9BB21A467B6913407B6106E07B68BF
S31520000DE09B8A9BB21A467B6913407B617B881B0AD0
S31520000DF09BB2FB600122FB6802FA03F3FB607B686F
S31520000E001B889BB21A46FB681340FB607B69002B4C
S31520000E1005D0FB68002B02D00123FB7401E00023E0
S31520000E20FB74FB7C18461C37BD465DF8047B704777
S31520000E3080B485B000AF78600B467B800023FB81B1
S31520000E400023BB817B881B0AFB81FB89012202FAD6
S31520000E5003F3BB81BB89DB439AB27B681A8000BF50
S31520000E601437BD465DF8047B704700BF80B582B05D
S31520000E7000AF78607B68604A934208D10121012047
S31520000E8006F0E2FC0021012006F0DEFCAFE07B68E4
S31520000E90B3F1804F08D10121012006F0B5FC0021D5
S31520000EA0012006F0B1FCA2E07B68544A934208D1A7
S31520000EB00121022006F0A8FC0021022006F0A4FC55
S31520000EC095E07B684E4A934208D10121042006F022
S31520000ED09BFC0021042006F097FC88E07B68494AA9
S31520000EE0934208D10121082006F08EFC002108201B
S31520000EF006F08AFC7BE07B68434A934208D10121B5
S31520000F00102006F081FC0021102006F07DFC6EE00A
S31520000F107B683E4A934208D10121202006F074FCCA
S31520000F200021202006F070FC61E07B68384A93425D
S31520000F3008D10121022006F087FC0021022006F0BC
S31520000F4083FC54E07B68334A93420AD101214FF453
S31520000F50803006F079FC00214FF4803006F074FCD6
S31520000F6045E07B682C4A93420AD101214FF4003098
S31520000F7006F06AFC00214FF4003006F065FC36E0EE
S31520000F807B68264A93420AD101214FF4802006F03D
S31520000F905BFC00214FF4802006F056FC27E07B689E
S31520000FA01F4A934208D10121402006F02DFC002142
S31520000FB0402006F029FC1AE07B681A4A934208D1A1
S31520000FC00121802006F020FC0021802006F01CFC58
S31520000FD00DE07B68144A934209D101214FF48070B9
S31520000FE006F012FC00214FF4807006F00DFC00BFC5
S31520000FF00837BD4680BD00BF000001400004004008
S3152000100000080040000C0040001000400014004082
S3152000101000040140004001400044014000480140D6
S3152000102000180040001C00400020004080B485B01D
S3152000103000AF786039600023FB817B681B88FB81C9
S315200010407B68294A934213D07B68284A93420FD063
S315200010507B68B3F1804F0BD07B68254A934207D03B
S315200010607B68244A934203D07B68234A934208D163
S31520001070FB8923F07003FB813B685A88FB89134365
S31520001080FB817B681D4A93420CD07B681C4A9342A5
S3152000109008D0FB8923F44073FB813B681A89FB89BE
S315200010A01343FB817B68FA891A803B685A687B6800
S315200010B0DA623B681A887B681A857B680A4A9342FB
S315200010C003D07B68094A934204D13B689B7A1A462F
S315200010D07B681A867B6801229A8200BF1437BD4638
S315200010E05DF8047B704700BF00000140000401400A
S315200010F00004004000080040000C004000100040A2
S315200011000014004080B483B000AF78607B684FF055
S31520001110FF325A607B6800221A807B6800221A817F
S315200011207B6800225A807B6800229A7200BF0C37A7
S31520001130BD465DF8047B704780B483B000AF78600D
S315200011400B467B8013463B807B687A881A857B68B2
S315200011503A889A8200BF0C37BD465DF8047B7047FB
S3152000116080B485B000AF78600B467B800023FB817E
S315200011707B681B88FB81FB8923F07003FB81FA893E
S315200011807B881343FB817B68FA891A8000BF14375A
S31520001190BD465DF8047B704780B483B000AF7860AD
S315200011A039607B683A685A6200BF0C37BD465DF8E5
S315200011B0047B704780B483B000AF786039607B6869
S315200011C03A68DA6200BF0C37BD465DF8047B70478B
S315200011D080B483B000AF78607B685B6A18460C37B2
S315200011E0BD465DF8047B704780B483B000AF78605D
S315200011F07B681B8D9BB218460C37BD465DF8047B79
S31520001200704780B483B000AF78600B46FB70FB78E4
S31520001210002B08D07B681B889BB243F002039AB24E
S315200012207B681A8007E07B681B889BB223F0020349
S315200012309AB27B681A8000BF0C37BD465DF8047BE6
S31520001240704780B483B000AF78600B467B807B8884
S31520001250002B08D07B681B889BB243F004039AB20C
S315200012607B681A8007E07B681B889BB223F0040307
S315200012709AB27B681A8000BF0C37BD465DF8047BA6
S31520001280704780B483B000AF78600B46FB70FB7864
S31520001290002B08D07B681B889BB243F080039AB250
S315200012A07B681A8007E07B681B889BB223F080034B
S315200012B09AB27B681A8000BF0C37BD465DF8047B66
S315200012C0704780B483B000AF78600B467B807B6824
S315200012D01B889BB223F008039AB27B681A807B682E
S315200012E01B889AB27B8813439AB27B681A8000BF08
S315200012F00C37BD465DF8047B704780B483B000AFE1
S3152000130078600B467B807B681B889BB223F44073F6
S315200013109AB27B681A807B681B889AB27B881343B3
S315200013209AB27B681A8000BF0C37BD465DF8047BF5
S31520001330704780B483B000AF78600B46FB70FB78B3
S31520001340002B08D07B681B889BB243F001039AB21E
S315200013507B681A8007E07B681B889BB223F0010319
S315200013609AB27B681A8000BF0C37BD465DF8047BB5
S31520001370704780B485B000AF7860396000237B81E8
S315200013800023FB810023BB817B681B8C9BB223F04F
S3152000139001039AB27B681A847B681B8CFB817B686D
S315200013A09B88BB817B681B8B7B817B8923F07003A9
S315200013B07B817B8923F003037B813B681A887B89A9
S315200013C013437B81FB8923F00203FB813B689A89C7
S315200013D0FB891343FB813B685A88FB891343FB81B6
S315200013E07B681F4A934203D07B681E4A934223D1CF
S315200013F0FB8923F00803FB813B68DA89FB891343C9
S31520001400FB81FB8923F00403FB813B689A88FB89D7
S315200014101343FB81BB8923F48073BB81BB8923F4EF
S315200014200073BB813B681A8ABB891343BB813B6827
S315200014305A8ABB891343BB817B68BA899A807B68A9
S315200014407A891A833B689A687B685A637B68FA892B
S315200014501A8400BF1437BD465DF8047B704700BF71
S31520001460000001400004014080B485B000AF7860E0
S31520001470396000237B810023FB810023BB817B68AD
S315200014801B8C9BB223F010039AB27B681A847B686C
S315200014901B8CFB817B689B88BB817B681B8B7B813C
S315200014A07B8923F4E0437B817B8923F440737B8112
S315200014B03B681B881B029AB27B8913437B81FB897D
S315200014C023F02003FB813B689B891B019AB2FB8991
S315200014D01343FB813B685B881B019AB2FB8913434C
S315200014E0FB817B68224A934203D07B68214A934240
S315200014F02BD1FB8923F08003FB813B68DB891B0111
S315200015009AB2FB891343FB81FB8923F04003FB81BD
S315200015103B689B881B019AB2FB891343FB81BB89DD
S3152000152023F48063BB81BB8923F40063BB813B68C2
S315200015301B8A9B009AB2BB891343BB813B685B8A9B
S315200015409B009AB2BB891343BB817B68BA899A8078
S315200015507B687A891A833B689A687B689A637B687A
S31520001560FA891A8400BF1437BD465DF8047B70479C
S31520001570000001400004014080B485B000AF7860CF
S31520001580396000237B810023FB810023BB817B689C
S315200015901B8C9BB223F480739AB27B681A847B6877
S315200015A01B8CFB817B689B88BB817B689B8B7B81AB
S315200015B07B8923F070037B817B8923F003037B8166
S315200015C03B681A887B8913437B81FB8923F400734C
S315200015D0FB813B689B891B029AB2FB891343FB81E3
S315200015E03B685B881B029AB2FB891343FB817B68AD
S315200015F0224A934203D07B68214A93422BD1FB890E
S3152000160023F40063FB813B68DB891B029AB2FB89CA
S315200016101343FB81FB8923F48063FB813B689B8812
S315200016201B029AB2FB891343FB81BB8923F48053A7
S31520001630BB81BB8923F40053BB813B681B8A1B01FA
S315200016409AB2BB891343BB813B685B8A1B019AB262
S31520001650BB891343BB817B68BA899A807B687A8968
S315200016609A833B689A687B68DA637B68FA891A846E
S3152000167000BF1437BD465DF8047B7047000001406B
S315200016800004014080B485B000AF78603960002343
S31520001690BB8100237B810023FB817B681B8C9BB253
S315200016A023F480539AB27B681A847B681B8C7B81D7
S315200016B07B689B88FB817B689B8BBB81BB8923F4E2
S315200016C0E043BB81BB8923F44073BB813B681B8805
S315200016D01B029AB2BB891343BB817B8923F4005337
S315200016E07B813B689B891B039AB27B8913437B8151
S315200016F03B685B881B039AB27B8913437B817B689B
S31520001700124A934203D07B68114A93420AD1FB893D
S3152000171023F48043FB813B681B8A9B019AB2FB8999
S315200017201343FB817B68FA899A807B68BA899A83FE
S315200017303B689A687B681A647B687A891A8400BF3A
S315200017401437BD465DF8047B704700BF000001409A
S315200017500004014080B483B000AF78607B6800222B
S315200017601A807B6800225A807B6800229A807B68D8
S3152000177000229A607B6800229A817B680022DA81A7
S315200017807B6800221A827B6800225A8200BF0C37AF
S31520001790BD465DF8047B704780B485B000AF7860A5
S315200017A00B467B8013463B800023FB6000237B8116
S315200017B07B68FB60FB681833FB607B88012202FA9A
S315200017C003F37B817B681B8C9AB27B89DB439BB2BC
S315200017D013409AB27B681A847B88002B02D07B88C0
S315200017E0082B14D17B885B089BB21A46FB681344EE
S315200017F0FB60FB681968FA684FF68F730B4013601D
S31520001800FB6819683A88FB680A431A6019E07B88E6
S31520001810043B9BB25B089BB21A46FB681344FB60F1
S31520001820FB681968FA6848F6FF730B401360FB687B
S315200018301A683B881B029BB21946FB680A431A604A
S3152000184000BF00BF1437BD465DF8047B704780B4E7
S3152000185083B000AF786039607B683A685A6300BF0E
S315200018600C37BD465DF8047B704780B483B000AF6B
S31520001870786039607B683A689A6300BF0C37BD464A
S315200018805DF8047B704780B483B000AF7860396020
S315200018907B683A68DA6300BF0C37BD465DF8047B87
S315200018A0704780B483B000AF786039607B683A684F
S315200018B01A6400BF0C37BD465DF8047B704780B4C0
S315200018C085B000AF78600B467B800023FB817B6868
S315200018D01B8BFB81FB8923F07003FB81FA897B88B4
S315200018E01343FB817B68FA891A8300BF1437BD46F0
S315200018F05DF8047B704780B485B000AF78600B46F6
S315200019007B800023FB817B681B8BFB81FB8923F477
S31520001910E043FB817B881B029AB2FB891343FB8140
S315200019207B68FA891A8300BF1437BD465DF8047BAD
S31520001930704780B485B000AF78600B467B8000236B
S31520001940FB817B689B8BFB81FB8923F07003FB81EA
S31520001950FA897B881343FB817B68FA899A8300BFC7
S315200019601437BD465DF8047B704780B485B000AF60
S3152000197078600B467B800023FB817B689B8BFB81F9
S31520001980FB8923F4E043FB817B881B029AB2FB8907
S315200019901343FB817B68FA899A8300BF1437BD46BF
S315200019A05DF8047B704780B485B000AF78600B4645
S315200019B07B800023FB817B681B8BFB81FB8923F0CB
S315200019C00803FB81FA897B881343FB817B68FA89AC
S315200019D01A8300BF1437BD465DF8047B704780B478
S315200019E085B000AF78600B467B800023FB817B6847
S315200019F01B8BFB81FB8923F40063FB817B881B0205
S31520001A009AB2FB891343FB817B68FA891A8300BF4C
S31520001A101437BD465DF8047B704780B485B000AFAF
S31520001A2078600B467B800023FB817B689B8BFB8148
S31520001A30FB8923F00803FB81FA897B881343FB810A
S31520001A407B68FA899A8300BF1437BD465DF8047B0C
S31520001A50704780B485B000AF78600B467B8000234A
S31520001A60FB817B689B8BFB81FB8923F40063FB81D5
S31520001A707B881B029AB2FB891343FB817B68FA8918
S31520001A809A8300BF1437BD465DF8047B704780B447
S31520001A9085B000AF78600B467B800023FB817B6896
S31520001AA01B8BFB81FB8923F00403FB81FA897B884E
S31520001AB01343FB817B68FA891A8300BF1437BD461E
S31520001AC05DF8047B704780B485B000AF78600B4624
S31520001AD07B800023FB817B681B8BFB81FB8923F4A6
S31520001AE08063FB817B881B029AB2FB891343FB81AF
S31520001AF07B68FA891A8300BF1437BD465DF8047BDC
S31520001B00704780B485B000AF78600B467B80002399
S31520001B10FB817B689B8BFB81FB8923F00403FB8184
S31520001B20FA897B881343FB817B68FA899A8300BFF5
S31520001B301437BD465DF8047B704780B485B000AF8E
S31520001B4078600B467B800023FB817B689B8BFB8127
S31520001B50FB8923F48063FB817B881B029AB2FB8975
S31520001B601343FB817B68FA899A8300BF1437BD46ED
S31520001B705DF8047B704780B485B000AF78600B4673
S31520001B807B800023FB817B681B8BFB81FB8923F0F9
S31520001B908003FB81FA897B881343FB817B68FA8962
S31520001BA01A8300BF1437BD465DF8047B704780B4A6
S31520001BB085B000AF78600B467B800023FB817B6875
S31520001BC01B8BFB81FB89C3F30E03FB817B881B02E6
S31520001BD09AB2FB891343FB817B68FA891A8300BF7B
S31520001BE01437BD465DF8047B704780B485B000AFDE
S31520001BF078600B467B800023FB817B689B8BFB8177
S31520001C00FB8923F08003FB81FA897B881343FB81C0
S31520001C107B68FA899A8300BF1437BD465DF8047B3A
S31520001C20704780B485B000AF78600B467B80002378
S31520001C30FB817B689B8BFB81FB89C3F30E03FB81B6
S31520001C407B881B029AB2FB891343FB817B68FA8946
S31520001C509A8300BF1437BD465DF8047B704780B475
S31520001C6085B000AF78600B467B800023FB817B68C4
S31520001C701B8CFB81FB8923F00203FB81FA897B887D
S31520001C801343FB817B68FA891A8400BF1437BD464B
S31520001C905DF8047B704780B485B000AF78600B4652
S31520001CA07B800023FB817B681B8CFB81FB8923F0D7
S31520001CB00803FB81FA897B881343FB817B68FA89B9
S31520001CC01A8400BF1437BD465DF8047B704780B484
S31520001CD085B000AF78600B467B800023FB817B6854
S31520001CE01B8CFB81FB8923F02003FB817B881B0156
S31520001CF09AB2FB891343FB817B68FA891A8400BF59
S31520001D001437BD465DF8047B704780B485B000AFBC
S31520001D1078600B467B800023FB817B681B8CFB81D4
S31520001D20FB8923F08003FB817B881B019AB2FB8908
S31520001D301343FB817B68FA891A8400BF1437BD469A
S31520001D405DF8047B704780B485B000AF78600B46A1
S31520001D507B800023FB817B681B8CFB81FB8923F422
S31520001D600073FB817B881B029AB2FB891343FB819C
S31520001D707B68FA891A8400BF1437BD465DF8047B58
S31520001D80704780B485B000AF78600B467B80002317
S31520001D90FB817B681B8CFB81FB8923F40063FB8121
S31520001DA07B881B029AB2FB891343FB817B68FA89E5
S31520001DB01A8400BF1437BD465DF8047B704780B493
S31520001DC085B000AF78600B467B800023FB817B6863
S31520001DD01B8CFB81FB8923F40053FB817B881B032F
S31520001DE09AB2FB891343FB817B68FA891A8400BF68
S31520001DF01437BD465DF8047B704780B485B000AFCC
S31520001E0078600B467B8013463B800023FB817B88D2
S31520001E10012202FA03F3FB817B681B8C9AB2FB89B1
S31520001E20DB439BB213409AB27B681A847B681B8C77
S31520001E309AB239887B8801FA03F39BB213439AB28C
S31520001E407B681A8400BF1437BD465DF8047B704753
S31520001E5080B485B000AF78600B467B8013463B800C
S31520001E600023FB817B88042202FA03F3FB817B6833
S31520001E701B8C9AB2FB89DB439BB213409AB27B68D8
S31520001E801A847B681B8C9AB239887B8801FA03F303
S31520001E909BB213439AB27B681A8400BF1437BD469F
S31520001EA05DF8047B704780B582B000AF78603960FA
S31520001EB03B681B88002B0FD13B6859883B689A8862
S31520001EC03B681B89786800F0B7FC3B68DB881946BD
S31520001ED0786800F0E1F836E03B681B88042B0FD1C8
S31520001EE03B6859883B689A883B681B89786800F06C
S31520001EF0E6FC3B68DB881946786800F0E9F822E0C2
S31520001F003B681B88082B0FD13B6859883B689A8809
S31520001F103B681B89786800F01FFD3B68DB88194603
S31520001F20786800F0F3F80EE03B6859883B689A8899
S31520001F303B681B89786800F057FD3B68DB881946AB
S31520001F40786800F0FFF800BF0837BD4680BD80B432
S31520001F5083B000AF78607B6800221A807B680022FD
S31520001F605A807B6801229A807B680022DA807B680F
S31520001F7000221A8100BF0C37BD465DF8047B7047EE
S31520001F8080B584B000AF786039600023FB810123DF
S31520001F90BB813B685B88002B02D10223FB8101E0D9
S31520001FA00023FB813B689B88012B02D10223BB8146
S31520001FB001E00123BB813B681B88002B1CD13B68B9
S31520001FC059883B689A883B681B89786800F034FCFE
S31520001FD03B68DB881946786800F05EF83B681B8909
S31520001FE0BA89F989786800F06AFC3B68DB8819466B
S31520001FF0786800F06DF81BE03B6859883B689A8842
S315200020003B681B89786800F05AFC3B68DB881946D8
S31520002010786800F05DF83B681B89BA89F989786889
S3152000202000F00AFC3B68DB881946786800F034F833
S3152000203000BF1037BD4680BD80B483B000AF786046
S315200020407B685B6B18460C37BD465DF8047B704792
S3152000205080B483B000AF78607B689B6B18460C37E2
S31520002060BD465DF8047B704780B483B000AF7860CE
S315200020707B68DB6B18460C37BD465DF8047B7047E2
S3152000208080B483B000AF78607B681B6C18460C3731
S31520002090BD465DF8047B704780B483B000AF78609E
S315200020A00B467B807B681B8B9BB223F00C039AB27A
S315200020B07B681A837B681B8B9AB27B8813439AB200
S315200020C07B681A8300BF0C37BD465DF8047B7047DA
S315200020D080B483B000AF78600B467B807B681B8B17
S315200020E09BB223F440639AB27B681A837B681B8B6E
S315200020F09AB27B881B029BB213439AB27B681A83DF
S3152000210000BF0C37BD465DF8047B704780B483B0B2
S3152000211000AF78600B467B807B689B8B9BB223F05D
S315200021200C039AB27B689A837B689B8B9AB27B88D6
S3152000213013439AB27B689A8300BF0C37BD465DF87D
S31520002140047B704780B483B000AF78600B467B80F9
S315200021507B689B8B9BB223F440639AB27B689A83FD
S315200021607B689B8B9AB27B881B029BB213439AB2E5
S315200021707B689A8300BF0C37BD465DF8047B7047A9
S3152000218080B483B000AF786039603B681A883B68BA
S315200021905B8813439AB23B689B8813439AB23B6889
S315200021A0DB8813439AB23B681B8913439AB23B6878
S315200021B05B8913439AB23B689B8913439AB27B6827
S315200021C0A3F8442000BF0C37BD465DF8047B70475A
S315200021D080B483B000AF78607B6800221A807B6869
S315200021E000225A807B6800229A807B680022DA804F
S315200021F07B6800221A817B6800225A817B68002234
S315200022009A8100BF0C37BD465DF8047B704780B4C9
S3152000221083B000AF78600B46FB70FB78002B0CD0A8
S315200022207B68B3F844309BB26FEA43436FEA53436B
S315200022309AB27B68A3F8442009E07B68B3F844305F
S315200022409BB2C3F30E039AB27B68A3F8442000BF67
S315200022500C37BD465DF8047B704780B483B000AF71
S3152000226078600B46FB70FB78002B08D07B689B8838
S315200022709BB243F004039AB27B689A8007E07B689E
S315200022809B889BB223F004039AB27B689A8000BF96
S315200022900C37BD465DF8047B704780B483B000AF31
S315200022A078600B46FB70FB78002B08D07B689B88F8
S315200022B09BB243F001039AB27B689A8007E07B6861
S315200022C09B889BB223F001039AB27B689A8000BF59
S315200022D00C37BD465DF8047B704780B483B000AFF1
S315200022E078600B467B8013467B707B78002B08D06A
S315200022F07B689B899AB27B8813439AB27B689A81C2
S3152000230009E07B689B899AB27B88DB439BB21340AA
S315200023109AB27B689A8100BF0C37BD465DF8047B74
S31520002320704780B483B000AF78600B467B807B68B3
S315200023307A889A8200BF0C37BD465DF8047B7047C9
S3152000234080B485B000AF78600B467B800023FB739A
S315200023507B681B8A9AB27B8813409BB2002B02D0E3
S315200023600123FB7301E00023FB73FB7B1846143724
S31520002370BD465DF8047B704780B483B000AF7860BB
S315200023800B467B807B88DB439AB27B681A8200BF30
S315200023900C37BD465DF8047B704780B485B000AF2E
S315200023A078600B467B800023FB730023BB810023D0
S315200023B07B817B681B8A9AB27B881340BB817B68B2
S315200023C09B899AB27B8813407B81BB89002B05D0E1
S315200023D07B89002B02D00123FB7301E00023FB73D2
S315200023E0FB7B18461437BD465DF8047B704780B4E6
S315200023F083B000AF78600B467B807B88DB439AB244
S315200024007B681A8200BF0C37BD465DF8047B704797
S3152000241080B483B000AF78600B467B8013463B8048
S315200024207A883B8813439AB27B68A3F8482000BF7A
S315200024300C37BD465DF8047B704780B483B000AF8F
S3152000244078600B467B8013467B707B78002B08D008
S315200024507B689B899AB27B8813439AB27B689A8160
S3152000246009E07B689B899AB27B88DB439BB2134049
S315200024709AB27B689A8100BF0C37BD465DF8047B13
S31520002480704780B483B000AF78600B46FB70FB7852
S31520002490002B08D07B689B889BB243F008039AB236
S315200024A07B689A8007E07B689B889BB223F00803B1
S315200024B09AB27B689A8000BF0C37BD465DF8047BD4
S315200024C0704780B483B000AF78607B681B899BB26D
S315200024D023F007039AB27B681A8100BF0C37BD46EA
S315200024E05DF8047B704780B582B000AF78600B46FC
S315200024F07B807B881946786800F088F87B681B8982
S315200025009BB243F007039AB27B681A8100BF083753
S31520002510BD4680BD80B584B000AFF8600846114640
S315200025201A4603467B810B463B811346FB807B89FB
S31520002530602B06D1FB8839890122F86800F0BFF9A3
S3152000254005E0FB8839890122F86800F075F97B8956
S315200025501946F86800F05AF8FB681B899BB243F0CD
S3152000256007039AB2FB681A8100BF1037BD4680BDAB
S3152000257080B586B000AFF860084611461A46034675
S315200025807B810B463B811346FB800023FB82FB8825
S315200025903A897989F86800F0A9F8FB681B89FB82DB
S315200025A0FB8A23F00703FB82FB8A43F00703FB82A7
S315200025B0FB8A23F07003FB82FB8A43F07003FB82C5
S315200025C0FB68FA8A1A8100BF1837BD4680BD80B5E0
S315200025D084B000AFF860084611461A4603467B8150
S315200025E00B463B811346FB80FB883A897989F8683C
S315200025F000F07CF8FB681B899BB243F480439AB2B7
S31520002600FB681A8100BF1037BD4680BD80B485B0F7
S3152000261000AF78600B467B800023FB817B681B899B
S31520002620FB81FB8923F07003FB81FA897B881343A6
S31520002630FB817B68FA891A8100BF1437BD465DF895
S31520002640047B704780B483B000AF78600B467B80F4
S315200026507B689B889BB223F070039AB27B689A8032
S315200026607B689B889AB27B8813439AB27B689A8050
S3152000267000BF0C37BD465DF8047B704780B483B03D
S3152000268000AF78600B467B807B681B899BB223F06A
S3152000269007039AB27B681A817B681B899AB27B886A
S315200026A013439AB27B681A8100BF0C37BD465DF88A
S315200026B0047B704780B483B000AF78600B467B8084
S315200026C07B681B899BB223F080039AB27B681A81B0
S315200026D07B681B899AB27B8813439AB27B681A81DE
S315200026E000BF0C37BD465DF8047B704780B487B0C9
S315200026F000AFF860084611461A4603467B810B4612
S315200027003B811346FB800023FB82FB681B89FB82EF
S31520002710FB8ADBB2FB82FB881B029AB23B891343FE
S315200027209AB27B8913439AB2FB8A1343FB82FB68D6
S31520002730FA8A1A8100BF1C37BD465DF8047B7047B4
S3152000274080B487B000AFF860084611461A460346A3
S315200027507B810B463B811346FB800023FB820023B3
S31520002760BB8200237B82FB681B89FB82FB681B8B59
S31520002770BB82FB681B8C7B82FB8A23F00703FB82D0
S31520002780FA8A7B891343FB82BB8A23F4407323F0A6
S315200027900303BB82BB8A43F4807343F00103BB82ED
S315200027A07B8A23F022037B82FB881B019AB23B891A
S315200027B013439AB27B8A13437B82FB68FA8A1A8177
S315200027C0FB68BA8A1A83FB687A8A1A8400BF1C3788
S315200027D0BD465DF8047B704780B483B000AF786057
S315200027E00B46FB70FB78002B08D07B689B889BB23E
S315200027F043F080039AB27B689A8007E07B689B88C7
S315200028009BB223F080039AB27B689A8000BF0C3774
S31520002810BD465DF8047B704780B483B000AF786016
S315200028200B467B807B687A88A3F8502000BF0C3744
S31520002830BD465DF8047B704780B487B000AFF86072
S31520002840084611461A4603467B810B463B811346B2
S31520002850FB800023FB820023BB82FB681B8C9BB280
S3152000286023F001039AB2FB681A84FB681B8BFB8258
S31520002870FB681B8CBB82FB8A23F0F303FB82FB885D
S315200028801B019AB23B8913439AB2FB8A1343FB82FC
S31520002890BB8A23F00A03BB827A89BB8A13439BB285
S315200028A043F00103BB82FB68FA8A1A83FB68BA8A63
S315200028B01A8400BF1C37BD465DF8047B704780B480
S315200028C087B000AFF860084611461A4603467B815A
S315200028D00B463B811346FB800023FB820023BB82F1
S315200028E000237B82FB681B8C9BB223F010039AB2D9
S315200028F0FB681A84FB681B8BFB82FB681B8CBB82E4
S315200029007B891B017B82FB8A23F440731B051B0DED
S31520002910FB82FB881B039AB2FB8A1343FB823B890B
S315200029201B029AB2FB8A1343FB82BB8A23F0A003C5
S31520002930BB827A8ABB8A13439BB243F01003BB82C5
S31520002940FB68FA8A1A83FB68BA8A1A8400BF1C3786
S31520002950BD465DF8047B704780B487B000AFF86051
S31520002960084611461A4603467B810B463B81134691
S31520002970FB800023FB820023BB8200237B82FB6833
S315200029801B8C9BB223F480739AB2FB681A84FB6873
S315200029909B8BFB82FB681B8CBB827B891B027B8209
S315200029A0FB8A23F0F303FB82FB881B019AB23B8947
S315200029B013439AB2FB8A1343FB82BB8A23F4206318
S315200029C0BB827A8ABB8A13439BB243F48073BB8251
S315200029D0FB68FA8A9A83FB68BA8A1A8400BF1C3776
S315200029E0BD465DF8047B704780B487B000AFF860C1
S315200029F0084611461A4603467B810B463B81134601
S31520002A00FB800023FB820023BB8200237B82FB68A2
S31520002A101B8C9BB223F480539AB2FB681A84FB6802
S31520002A209B8BFB82FB681B8CBB827B891B037B8277
S31520002A30FB8A23F440731B051B0DFB823B891B027B
S31520002A409AB2FB8A1343FB82FB881B039AB2FB8A4A
S31520002A501343FB82BB8A23F400535B045B0CBB82CB
S31520002A607A8ABB8A13439BB243F48053BB82FB68AA
S31520002A70FA8A9A83FB68BA8A1A8400BF1C37BD4635
S31520002A805DF8047B704700BF80B582B000AF7860E8
S31520002A907B684B4A934208D10121012004F054FE61
S31520002AA00021012004F050FE86E07B68454A9342CF
S31520002AB008D10121022004F047FE0021022004F063
S31520002AC043FE79E07B68404A934208D101210420E5
S31520002AD004F03AFE0021042004F036FE6CE07B6808
S31520002AE03A4A934208D10121082004F02DFE002104
S31520002AF0082004F029FE5FE07B68354A934208D11E
S31520002B000121102004F020FE0021102004F01CFEDC
S31520002B1052E07B682F4A934208D10121202004F0FD
S31520002B2013FE0021202004F00FFE45E07B682A4A90
S31520002B30934208D10121402004F006FE00214020C6
S31520002B4004F002FE38E07B68244A934208D1012132
S31520002B50802004F0F9FD0021802004F0F5FD2BE013
S31520002B607B681F4A93420AD101214FF4807004F0FA
S31520002B70EBFD00214FF4807004F0E6FD1CE07B683D
S31520002B80184A93420AD101214FF4007004F0DCFD6B
S31520002B9000214FF4007004F0D7FD0DE07B68124A47
S31520002BA0934209D101214FF4806004F0CDFD00212C
S31520002BB04FF4806004F0C8FD00BF0837BD4680BDD5
S31520002BC0000002400004024000080240000C0240BF
S31520002BD0001002400014024000180240001C02406F
S31520002BE000200240002402400028024080B487B022
S31520002BF000AF7860396000237B6100233B610023AE
S31520002C00FB6000237B6176E001227B6902FA03F3F5
S31520002C103B613B681B683A691340FB60FA683B6975
S31520002C209A4265D17B681A687B695B00032101FAA9
S31520002C3003F3DB431A407B681A607B681A683B689B
S31520002C401B7919467B695B0001FA03F31A437B68FB
S31520002C501A603B681B79012B03D03B681B79022B3A
S31520002C602ED17B689A687B695B00032101FA03F306
S31520002C70DB431A407B689A607B689A683B685B797D
S31520002C8019467B695B0001FA03F31A437B689A6055
S31520002C907B685A687B699BB2194601238B40DB43CC
S31520002CA01A407B685A607B685B683A68927911465D
S31520002CB07A6992B201FA02F292B21A437B685A609A
S31520002CC07B68DA687B699BB25B00032101FA03F318
S31520002CD0DB431A407B68DA607B68DA683B68DB791D
S31520002CE019467B695B0001FA03F31A437B68DA60B5
S31520002CF07B6901337B617B690F2B85D900BF00BFC0
S31520002D001C37BD465DF8047B704780B483B000AFA6
S31520002D1078607B684FF6FF721A607B6800221A7112
S31520002D207B6800225A717B6800229A717B68002298
S31520002D30DA7100BF0C37BD465DF8047B704780B45E
S31520002D4085B000AF78600B467B804FF48033FB6004
S31520002D507A88FB681343FB60FA687B68DA617A88B5
S31520002D607B68DA61FA687B68DA617B68DB69FB601D
S31520002D707B68DB69FB6000BF1437BD465DF8047BCA
S31520002D80704780B485B000AF78600B467B80002307
S31520002D90FB737B681A697B881340002B02D00123C2
S31520002DA0FB7301E00023FB73FB7B18461437BD46FB
S31520002DB05DF8047B704780B483B000AF78607B6891
S31520002DC01B699BB218460C37BD465DF8047B7047DD
S31520002DD080B485B000AF78600B467B800023FB7300
S31520002DE07B685A697B881340002B02D00123FB7332
S31520002DF001E00023FB73FB7B18461437BD465DF8C4
S31520002E00047B704780B483B000AF78607B685B69D1
S31520002E109BB218460C37BD465DF8047B704780B4DC
S31520002E2083B000AF78600B467B807B687A881A83F4
S31520002E3000BF0C37BD465DF8047B704780B483B075
S31520002E4000AF78600B467B807B687A885A8300BF08
S31520002E500C37BD465DF8047B704780B483B000AF65
S31520002E6078600B467B8013467B707B78002B03D0E3
S31520002E707B687A881A8302E07B687A885A8300BF47
S31520002E800C37BD465DF8047B704780B483B000AF35
S31520002E9078600B467B807A887B685A6100BF0C3746
S31520002EA0BD465DF8047B704780B483B000AF786080
S31520002EB00B467B807B685A697B885A407B685A61BF
S31520002EC000BF0C37BD465DF8047B704780B485B0E3
S31520002ED000AF78600B467B8013467B700023FB6037
S31520002EE00023BB607A787B8803F007039B0002FAF5
S31520002EF003F3FB607B88DB089BB21A467B680832AB
S31520002F0053F822207B8803F007039B000F2101FA48
S31520002F1003F3DB437988C90889B2084602EA03012C
S31520002F207B6800F1080243F822107B88DB089BB2FD
S31520002F301A467B68083253F82230FA681343BB607E
S31520002F407B88DB089BB21A467B680832B96843F84F
S31520002F50221000BF1437BD465DF8047B704700BFC2
S31520002F6080B500AF01214FF0005004F04DFC002148
S31520002F704FF0005004F048FC00BF80BD80B485B0FF
S31520002F8000AF786039600023FB600023BB60144BE0
S31520002F901B68FB6040F6FE727B6802FA03F3DB4394
S31520002FA0FA681340FB603B681A683B685B681A4303
S31520002FB03B689B681A433B68DB681343BB60BA686F
S31520002FC07B6802FA03F3FA681343FB60044AFB6842
S31520002FD0136000BF1437BD465DF8047B704700BF01
S31520002FE00074004080B483B000AF78607B68002214
S31520002FF01A607B6800225A607B6800229A607B6890
S315200030000022DA6000BF0C37BD465DF8047B7047AE
S3152000301080B483B000AF78600B46FB70FB78002B42
S3152000302009D00D4B1A6801217B6801FA03F30A497E
S3152000303013430B6009E0084B1A6801217B6801FAEB
S3152000304003F3DB43044913400B6000BF0C37BD4636
S315200030505DF8047B704700BF0074004080B483B0E5
S3152000306000AF78600B46FB70FB78002B0AD00E4B26
S315200030705A687B681B09012101FA03F30A491343A5
S315200030804B600AE0084B5A687B681B09012101FA4C
S3152000309003F3DB43044913404B6000BF0C37BD46A6
S315200030A05DF8047B704700BF0074004080B483B095
S315200030B000AF0346FB71FB79002B06D0094B5B68FA
S315200030C0084A43F00303536005E0064B5B68054A54
S315200030D023F00303536000BF0C37BD465DF8047B25
S315200030E0704700BF0074004080B485B000AFF86020
S315200030F0B9601346FB71FB79002B09D00C4B1A687B
S31520003100B968FB6801FA03F3094913430B6009E028
S31520003110074B1A68B968FB6801FA03F3DB430449D5
S3152000312013400B6000BF1437BD465DF8047B704723
S315200031300074004080B485B000AF78600B467B8079
S315200031400023FB60084BFB60FA687B681344083356
S31520003150FB60FB681A467B88136000BF1437BD46A8
S315200031605DF8047B704700BF0074004080B485B0D2
S3152000317000AF78600B467B800023FB60084BFB602A
S31520003180FA687B6813441433FB60FB681A467B8815
S31520003190136000BF1437BD465DF8047B704700BF3F
S315200031A00074004080B485B000AF78600B467B8009
S315200031B013463B800023FB600023BB607B68082B03
S315200031C005D17B881A023B881343FB6004E07B8889
S315200031D01A043B881343FB60074BBB607A68BB68C5
S315200031E013442033BB60BB68FA681A6000BF1437EB
S315200031F0BD465DF8047B70470074004080B485B0FE
S3152000320000AF78600023FB60084BFB607B689A0860
S31520003210FB6813442C33FB60FB681B689BB2184683
S315200032201437BD465DF8047B704700BF007400402C
S3152000323080B483B000AF78600B46FB70FB78002B20
S315200032400AD00E4B1A684FF480517B6801FA03F3BB
S315200032500A4913430B600AE0084B1A684FF4805161
S315200032607B6801FA03F3DB43044913400B6000BF7C
S315200032700C37BD465DF8047B704700BF00740040E4
S3152000328080B485B000AFF860B9601346FB71FB7956
S31520003290002B09D00C4B1A68B968FB6801FA03F3B6
S315200032A0094913430B6009E0074B1A68B968FB68A4
S315200032B001FA03F3DB43044913400B6000BF1437C4
S315200032C0BD465DF8047B70470074004080B485B02D
S315200032D000AF786039600023FB730A4B5A6B39685C
S315200032E07B6801FA03F31340002B02D00123FB7302
S315200032F001E00023FB73FB7B18461437BD465DF8BF
S31520003300047B70470074004080B483B000AF7860BF
S31520003310396006493A687B6802FA03F34B6300BFBB
S315200033200C37BD465DF8047B704700BF0074004033
S3152000333080B485B000AF786039600023FB7300232A
S31520003340BB60104B1A6839687B6801FA03F3134097
S31520003350BB600C4B5A6B39687B6801FA03F3134048
S31520003360002B05D0BB68002B02D00123FB7301E0A4
S315200033700023FB73FB7B18461437BD465DF8047BA0
S31520003380704700BF0074004080B483B000AF7860FF
S31520003390396006493A687B6802FA03F34B6300BF3B
S315200033A00C37BD465DF8047B704700BF00740040B3
S315200033B080B400AF094B00221A60084B00225A60E5
S315200033C0064B00229A60054B0022DA60034B044A22
S315200033D05A6100BFBD465DF8047B7047003C014042
S315200033E0FFFF7F0080B485B000AF78600023FB60CC
S315200033F0344BFB607B689B79002B4FD0314B1A688E
S315200034007B681B68DB432F4913400B602D4B5A68A2
S315200034107B681B68DB432B4913404B607B681B7919
S315200034201A46FB681344FB60FB6819687B681A68B8
S31520003430FB680A431A60234B9A687B681B68DB4348
S31520003440204913408B601F4BDA687B681B68DB437F
S315200034501C491340CB607B685B79102B0ED1194B2E
S315200034609A687B681B68174913438B60154BDA688B
S315200034707B681B6813491343CB601DE0114BFB602F
S315200034807B685B791A46FB681344FB60FB68196806
S315200034907B681A68FB680A431A600DE07B681B7913
S315200034A01A46FB681344FB60FB6819687B681B6837
S315200034B0DA43FB680A401A6000BF1437BD465DF840
S315200034C0047B7047003C014080B483B000AF786035
S315200034D07B6800221A607B6800221A717B680C22A6
S315200034E05A717B6800229A7100BF0C37BD465DF881
S315200034F0047B704780B483B000AF7860054B1A69AF
S3152000350004497B6813430B6100BF0C37BD465DF849
S31520003510047B7047003C014080B485B000AF7860E2
S315200035200023FB73084B5A697B681340002B02D09B
S315200035300123FB7301E00023FB73FB7B1846143742
S31520003540BD465DF8047B7047003C014080B483B0E3
S3152000355000AF7860044A7B68536100BF0C37BD46D4
S315200035605DF8047B704700BF003C014080B485B005
S3152000357000AF78600023FB73084B5A697B681340C1
S31520003580002B02D00123FB7301E00023FB73FB7B9E
S3152000359018461437BD465DF8047B7047003C014051
S315200035A080B483B000AF7860044A7B68536100BF63
S315200035B00C37BD465DF8047B704700BF003C0140D8
S315200035C080B483B000AF0346FB71FB7903F01F0381
S315200035D0012202FA03F1064A97F907305B0942F8FD
S315200035E0231000BF0C37BD465DF8047B704700BF33
S315200035F000E100E080B483B000AF03463960FB7180
S3152000360097F90730002B0BDA3B68DAB20C49FB79C5
S3152000361003F00F03043B1201D2B20B441A7609E0E1
S315200036203B68DAB2074997F907301201D2B20B4448
S3152000363083F8002300BF0C37BD465DF8047B704736
S3152000364000ED00E000E100E080B586B000AF7860D4
S3152000365039607B6800229A617B689A697B685A6127
S315200036607B685A697B68DA6107F10C03184601F01A
S315200036709BFB0023BB740023FB7400233B750023B4
S315200036807B750023BB750023FB750023BB730023CA
S31520003690FB7302233B7403237B740723BB8107F14F
S315200036A00C031946124801F0EBF90346002B02D110
S315200036B0104800F05DFA07F10C0319460E4801F098
S315200036C0DFF90346002B02D10C4800F051FA022103
S315200036D01420FFF78FFF1420FFF772FF012202212B
S315200036E0034801F09FFF00BF1837BD4680BD00BFCD
S315200036F000640040D4A5002000680040ECA500200E
S31520003700B0B58AB002AF786039607B689B685A4949
S31520003710184601F0A5FF0346012B02D0574800F0BA
S3152000372027FA7B68DB69072B00F39E807B689B6802
S3152000373007F108020021184601F07AFDBB681B0933
S31520003740DBB27A68526903F07F03D8B279681346F0
S315200037509B0013445B0013440B44203302461A702B
S31520003760BB68DBB27A68526903F00F03D8B2796876
S3152000377013469B0013445B0013440B44213302463B
S315200037801A70BB7C7A68526903F00F03D8B2796845
S3152000379013469B0013445B0013440B44223302461A
S315200037A01A700023FB7715E0FB7F7A685269F97F50
S315200037B020333B4413F80D4C786813469B00134482
S315200037C05B00134403440B44233322461A70FB7FC9
S315200037D00133FB777B685A69796813469B0013444B
S315200037E05B0013440B4422331B78FA7F9A42DBD3C7
S315200037F07B68DB68002B25D07B68DC687B681D69CD
S315200038007B685A69796813469B0013445B0013440E
S315200038100B4420331B7819017B685A697868134654
S315200038209B0013445B001344034421331B780B4451
S3152000383000932B4622460021002000F0D3FD104B9A
S3152000384001221A607B685B6901335A4203F0070341
S3152000385002F0070258BF53427A6853617B68DB69DE
S315200038605A1C7B68DA6102E0064800F081F900BF45
S315200038702037BD46B0BD00BF0300001204A60020BD
S31520003880B85801202CA6002090B484B000AF7860F0
S3152000389039607B68DB69002B55DD7B689A6979681E
S315200038A013469B0013445B0013440B4420331A78C1
S315200038B03B681A707B689A69796813469B001344A3
S315200038C05B0013440B4421331A783B685A707B689B
S315200038D09A69796813469B0013445B0013440B4492
S315200038E022331A783B689A700023FB7313E07B68B7
S315200038F09A69F87BF97B7C6813469B0013445B002E
S3152000390013442344034423331A783B680B44DA7068
S31520003910FB7B0133FB733B689B78FA7B9A42E6D3A9
S315200039207B689B6901335A4203F0070302F00702C2
S3152000393058BF53427A6893617B68DB695A1E7B685D
S31520003940DA61002300E0012318461037BD4690BCFB
S31520003950704780B58AB000AF786039607B689B6815
S315200039603B620023FB773B681B781B013A68527841
S315200039701344BB6000237B7400233B743B689B7815
S31520003980082B02D93B6808229A703B689B78BB7447
S31520003990002387F827300FE097F8272097F827305D
S315200039A039680A44D27828333B4403F8152C97F813
S315200039B02730013387F827303B689B7897F82720F4
S315200039C09A42E9D307F108031946386A01F0B0FA9A
S315200039D00346FB77FB7F042B04D1054800F0C8F88B
S315200039E0012300E0002318462837BD4680BD00BFCE
S315200039F04CA60020314900E03149EFF3088020ED44
S31520003A00108A7246EFF3118320E9FC0F2D4FD7F869
S31520003A100080C8F800001EE0084600F0A9F82A48F1
S31520003A2000F0A6F8294800F0A3F8D8F8040000F022
S31520003A30EBF8274800F09CF8D8F8000000F0B5F81D
S31520003A40244800F095F8D8F80000006800F0ADF89A
S31520003A501D4800F08DF8DFF88080D8F80080C7F880
S31520003A60008018E01D4800F083F8D8F8040000F024
S31520003A70CBF81B4800F07CF8D8F8000000F095F849
S31520003A80144800F075F8D8F80000006800F08DF8AA
S31520003A900D4800F06DF8134A536843F000635360F5
S31520003AA000BFD8F80000B0E8FC0F83F311889646D3
S31520003AB0B0EC108A80F308887047000018AD00200B
S31520003AC029AD0020BCAD002099AD00204AAD0020D4
S31520003AD062AD00206AAD0020C458012073AD0020DD
S31520003AE088AD002000ED00E080B483B000AF03462F
S31520003AF0FB71FB7903F01F03012202FA03F1064A48
S31520003B0097F907305B0942F8231000BF0C37BD46F2
S31520003B105DF8047B704700BF00E100E080B483B00D
S31520003B2000AF03463960FB7197F90730002B0BDA9B
S31520003B303B68DAB20C49FB7903F00F03043B120110
S31520003B40D2B20B441A7609E03B68DAB2074997F9F4
S31520003B5007301201D2B20B4483F8002300BF0C3782
S31520003B60BD465DF8047B704700ED00E000E100E013
S31520003B7080B582B000AF78600EE07B681B780D2B95
S31520003B8007D07B685A1C7A601B78184600F05EF9CD
S31520003B9002E07B6801337B607B681B78002BECD1CD
S31520003BA000BF00BF0837BD4680BD80B586B000AFD8
S31520003BB0786000237B617B6803F00F027B69591CC8
S31520003BC0796110498A5C18333B4403F80C2C7B68D6
S31520003BD01B097B607B68002BEDD10AE07B69013BEA
S31520003BE07B6107F10C027B6913441B78184600F0B1
S31520003BF02DF97B69002BF1D100BF00BF1837BD46D8
S31520003C0080BD00BF9CAD002080B59EB000AF78601F
S31520003C107B68002B02DA4FF0FF3300E001233B677D
S31520003C207B683A6F02FB03F37B6000237B6779682E
S31520003C301C4B83FB01239A10CB17D21A13469B00E9
S31520003C4013445B00CA1A7B6F591C796716498A5C34
S31520003C5078333B4403F86C2C7B68124A82FB0312B0
S31520003C609210DB17D31A7B607B68002BDFD13B6F6A
S31520003C70002B0EDA2D2000F0E9F80AE07B6F013BDD
S31520003C807B6707F10C027B6F13441B78184600F004
S31520003C90DDF87B6F002BF1D100BF00BF7837BD4622
S31520003CA080BD00BF676666669CAD002080B483B089
S31520003CB000AF10237B607B6883F3118800BF00BFB1
S31520003CC00C37BD465DF8047B704780B483B000AFE7
S31520003CD030237B607B6883F3118800BF00BF0C37DD
S31520003CE0BD465DF8047B704780B584B000AF786030
S31520003CF00B48FFF73DFF0B4B1B68002B02D1094BEE
S31520003D00094A1A60074B1B68FB60064B1A687B68DA
S31520003D101344044A1360FB6818461037BD4680BD1D
S31520003D2060A6002070D500205859012080B485B0A7
S31520003D3000AF786039603B6803F5F95310337A6831
S31520003D4013607B681B68BB600023FB6009E0FB688F
S31520003D509A00BB6813441A4600231360FB6801339C
S31520003D60FB60FB68332BF2DDBB686FF016021A602E
S31520003D70BB6804331A4603231360BB6884331A4690
S31520003D804FF08073136000BF1437BD465DF8047B87
S31520003D90704780B485B000AF786039607B681B6857
S31520003DA08033FB60FB683A681A6000BF1437BD4653
S31520003DB05DF8047B704780B584B000AF1C48FDF7E2
S31520003DC055F83B1D1846FDF79DF940F24733BB8059
S31520003DD03B1D19461648FDF729F9164B164A1A6057
S31520003DE002216FF00100FFF799FE144B144A1A6066
S31520003DF000216FF00400FFF791FE124B124A1A6061
S31520003E0002213220FFF78AFE3220FFF76DFE0021C5
S31520003E100748FDF7C1F901210548FDF78AFA012275
S31520003E2002210348FEF759FA00BF1037BD4680BD70
S31520003E30000C004038C00120F93900202CC0012098
S31520003E40F539002008C10120D341002080B582B079
S31520003E5000AF0346FB71FB799BB219460748FCF776
S31520003E6070FD00BF80210548FCF75AFF0346002B52
S31520003E70F8D000BF00BF0837BD4680BD0010014006
S31520003E8080B500AF1248FDF7A3F903461A46114B39
S31520003E901A60114B01221A60104B00221A60104B37
S31520003EA01B68002B06D00E4B1B680E4A1268002199
S31520003EB010469847084B00221A60084B1B68002BB7
S31520003EC001D000F05DFA054B00221A6080BD00BFCC
S31520003ED0000C0040BC580120B4580120B8580120DD
S31520003EE0C8580120D458012080B500AF1248FDF7EC
S31520003EF06FF903461A46114B1A60114B01221A60BC
S31520003F00104B00221A60104B5B68002B06D00E4B1C
S31520003F105B680E4A5268012110469847084B0022DA
S31520003F201A60084B1B68002B01D000F029FA054BBC
S31520003F3000221A6080BD00BF000C0040BC58012042
S31520003F40B4580120B8580120C8580120D45801205F
S31520003F5080B500AF1248FDF73BF903461A46114BD0
S31520003F601A60114B01221A60104B00221A60104B66
S31520003F709B68002B06D00E4B9B680E4A9268022146
S31520003F8010469847084B00221A60084B1B68002BE6
S31520003F9001D000F0F5F9054B00221A6080BD00BF64
S31520003FA0000C0040BC580120B4580120B85801200C
S31520003FB0C8580120D458012080B485B000AF78605D
S31520003FC039600023FB603B681B68BB6004E0BB686C
S31520003FD0FB60BB681B68BB60BB68002B05D0BB6859
S31520003FE09A687B689B689A42F1DD7B68BA681A609A
S31520003FF0FB68002B03D13B687A681A6002E0FB68F5
S315200040007A681A6000BF1437BD465DF8047B704796
S3152000401080B485B000AF786039600023FB603B68D0
S315200040201B68BB6004E0BB68FB60BB681B68BB60A9
S31520004030BB68002B05D0BB685A687B685B689A42D0
S31520004040F1DD7B68BA681A60FB68002B03D13B68F8
S315200040507A681A6002E0FB687A681A6000BF143733
S31520004060BD465DF8047B704780B584B000AF7860AC
S315200040707B681B68FB60FB68002B04D0FB681A6812
S315200040807B681A600CE00948FFF772FD00220221C6
S315200040900748FEF7E2FE0748FFF76AFD30BFFDE757
S315200040A0FB6818461037BD4680BD00BF78A60020A5
S315200040B00004024084A6002080B584B000AF78605A
S315200040C07B681B68FB60FB68002B04D0FB681A68C2
S315200040D07B681A600CE00948FFF74AFD002202219E
S315200040E00748FEF7BAFE0748FFF742FD30BFFDE757
S315200040F0FB6818461037BD4680BD00BF78A6002055
S315200041000004024090A6002080B483B000AF7860FF
S3152000411039603B681A687B681A603B687A681A605F
S3152000412000BF0C37BD465DF8047B704780B483B072
S3152000413000AF786039603B681A687B689A603B6894
S315200041407A681A6000BF0C37BD465DF8047B70475D
S3152000415080B485B000AF78607B681B68FB60FB6825
S315200041609A687B681A60FB6818461437BD465DF866
S31520004170047B704780B485B000AF78603960002337
S31520004180FB603B681B68BB6004E0BB68FB60BB68E8
S315200041901B68BB60BB68002B03D0BA687B689A4259
S315200041A0F3D1BB68002B0DD0FB68002B04D0BB6875
S315200041B01A68FB681A6003E0BB681A683B681A60D5
S315200041C0012300E0002318461437BD465DF8047B22
S315200041D0704780B582B000AF02211E48FEF707F96E
S315200041E01C48FCF7F5FF03467B6007E01A48FFF7FB
S315200041F03BFF034619491846FFF7DEFE164B1B68A0
S31520004200002B06D0144B1B685A687B68D31A002BE8
S31520004210ECDD114B1B68002B16D00E48FCF7D8FF9F
S3152000422003463B600C4B1B685B683A689A4204DD88
S31520004230002202210A48FEF710FE074B1B685B6826
S3152000424019460448FDF703FB00F09AF800BF08372B
S31520004250BD4680BD000C0040B0580120AC5801205E
S31520004260000402400346024A136010DFF74600BFEF
S31520004270C45801200346054A1360054B5B68044A6F
S3152000428043F080535360F74600BF00BFC458012057
S3152000429000ED00E080B582B000AF7860094B5B6826
S315200042A0C3F30803002B03D17868FFF7DBFF02E096
S315200042B07868FFF7DFFFFFF708FD00BF0837BD4628
S315200042C080BD00BF00ED00E090B585B000AF234B68
S315200042D01C682348FFF7C8FE0346E360E368BB601B
S315200042E0FFF7F3FCBB68D868BB681969BB685B69D4
S315200042F01A4600F015F9FFF7D9FC1A49B868FFF7F6
S3152000430003FF194B1B689B68DB687B60144B1B689B
S31520004310002B0AD07B68002BD9D0114B1B689A68DA
S315200043207B689B68D31A002BD1DD0F48FFF710FF5F
S3152000433003460E491846FFF7F9FE0B4B1B68FB6038
S3152000434003E0FB681B691B68FB60FB681B69002B8D
S31520004350F7D1F868FFF79EFFB9E700BFBCAD002094
S31520004360AC580120B0AD0020B8AD0020B4AD00207F
S3152000437080B500AF00F004F8FFF7A7FC30BFFBE7DD
S3152000438080B582B000AF144B1B68DB687B60134B93
S315200043901B68002B1BD0124B1B68002B17D07B6889
S315200043A0002B07D00D4B1B689A687B689B68D31A35
S315200043B0002B0CDA0A48FFF7CBFE034606491846BF
S315200043C0FFF7B4FE044B1B681846FFF763FF00BFD8
S315200043D00837BD4680BD00BFB8AD0020AC580120CF
S315200043E0B4AD002080B588B000AFF860B9607A60BF
S315200043F03B60EFF312833B613B691B09012B14BF22
S3152000440001230023DBB2FB77FFF750FC3A48FFF786
S3152000441053FEB861BB697A68DA60BB693A681A618B
S31520004420BB69BA6A5A61354B1B68002B04D1344BE1
S315200044301B68DB685B6801E0324B1B68FA681A442C
S31520004440BB695A60BB695A68BB68002B01DDBB6833
S3152000445001E06FF000431A44BB699A602A48FCF7D2
S31520004460B7FE03467B61BB695A687B69D31A002B6A
S3152000447016DD2649B869FFF7CBFD244B1B685B6820
S315200044807A699A4204DD002202212148FEF7E5FCE2
S315200044901E4B1B685B6819461B48FDF7D8F921E0BF
S315200044A01C49B869FFF788FDFB7F002B1AD01A4BF1
S315200044B01B68002B16D0174B1B689A68174B1B6876
S315200044C0DB689B68D31A002B0CDA1348FFF740FEF3
S315200044D0034612491846FFF729FE104B1B6818465B
S315200044E0FFF7D8FEFB7F002B01D0FFF7EEFBBB6961
S315200044F018462037BD4680BDB0AD0020B4580120F7
S31520004500BCAD0020BC580120000C0040B058012052
S3152000451000040240AC580120B4AD0020B8AD002004
S3152000452080B588B000AFF860B9607A60EFF3128387
S315200045303B613B691B09012B14BF01230023DBB21E
S31520004540FB76FFF7B3FBFB681B68FB61FB69002B5F
S3152000455037D003E0FB691B691B68FB61FB691B699C
S31520004560002BF7D1304B1B68FA699A4202D0FB7EAA
S31520004570002B07D1FB7E002B01D0FFF7A6FB4FF0C7
S31520004580FF334DE0FB685B68002B03D0FB685B685C
S3152000459000221A61244B1A68FB685A60224B1B685A
S315200045A0FA681A61F869FFF775FE1F4B1B68DB680E
S315200045B0002B06D1FB7E002B01D0FFF786FB0023C4
S315200045C02EE0194B1A68FB681A60FB7E002B05D07B
S315200045D0FB685B68012B01D0FFF777FBBB68796826
S315200045E0F86898477861FFF761FBFB6800221A603C
S315200045F0FB685B68FB61FB69002B0BD0FB69012B19
S3152000460008D0FB6800225A60FB6900221A61F8690B
S31520004610FFF740FEFB7E002B01D0FFF756FB7B69A0
S3152000462018462037BD4680BDBCAD002080B586B07B
S3152000463000AF7860EFF31283FB60FB681B09012B48
S3152000464014BF01230023DBB2FB74FFF72FFB1F49A6
S315200046507868FFF78FFD0346002B06D11C49786842
S31520004660FFF788FD0346002B04D01A497868FFF728
S315200046704BFD21E0184B1B687B611AE0174B1B682A
S315200046807A699A4212D07B69DB687A689A420DD1A0
S315200046907B691A697B68DB689A4207D17B690022AD
S315200046A0DA600C497868FFF72FFD05E07B699B6887
S315200046B07B617B69002BE1D1FB7C002B01D0FFF7CE
S315200046C004FB00BF1837BD4680BD00BFB05801208F
S315200046D0AC580120B0AD0020B8AD0020BCAD002004
S315200046E080B485B000AF7860EFF31283FB60FB687F
S315200046F01B09012B04D0074B1B68DB685B6801E0B4
S31520004700054B1B687A68136000BF1437BD465DF8F9
S31520004710047B7047BCAD0020BC58012080B485B016
S3152000472000AF7860EFF31283FB60FB681B09012B57
S3152000473004D0084B1B68DB685B6801E0064B1B68EE
S315200047407A6812689B1A18461437BD465DF8047BB2
S31520004750704700BFBCAD0020BC58012080B584B096
S3152000476000AFEFF312837B607B681B09012B14BF1C
S3152000477001230023DBB2FB73FFF798FA0C48FCF702
S3152000478027FD0346BB60FB7B002B01D0FFF79DFA7C
S31520004790FB7B002B04D0074B1B68DB685B6801E0C2
S315200047A0054B1B68BA68D31A18461037BD4680BD1C
S315200047B0000C0040BCAD0020BC58012080B582B062
S315200047C000AF00237B6012E07B685A1C13465B0017
S315200047D01344DB00444A991843487A6813465B0021
S315200047E01344DB00034419607B6801337B607B68DC
S315200047F01C2BE9DD3C4B0022C3F8B82200237B604A
S3152000480013E07B685A1C13469B0013449B00374ACF
S31520004810991836487A6813469B0013449B00034434
S31520004820083319607B6801337B607B68022BE8DDE7
S315200048302E4B00225A6400237B6030E02B497A6895
S3152000484013469B0013449B000B4404337A681A607A
S315200048507A6813469B0013449B00244A1A447B68BB
S315200048605B0323490B4419461046FFF75FFA7A6823
S3152000487013469B0013449B001C4A13441D491846AB
S31520004880FFF787FA19497A6813469B0013449B0061
S315200048900B44103300221A607B6801337B607B68EF
S315200048A0032BCBDD144B4FF0FF325A60124B002204
S315200048B09A60114B00221A610F4B0022DA600F48D2
S315200048C0FFF756F90E48FFF753F90E48FFF750F950
S315200048D00A48FFF74DF90948FFF74AF9FFF76BFA3F
S315200048E000BF0837BD4680BD74D5002044D80020BF
S315200048F098D80020C9420020985801209CA6002064
S31520004900A0A60020ACA6002080B586B000AFF86037
S31520004910B9601346FB71FB79022B41D8EFF3128362
S315200049203B613B691B09012B14BF01230023DBB22A
S31520004930FB75FFF7BBF9FB79022B0ED0022B10DC9F
S31520004940002B02D0012B04D00BE0174B174A1A601C
S3152000495014E0174B174A1A6010E0174B174A1A60D3
S315200049600CE01748FFF704F9002202211548FEF74C
S3152000497074FA1548FFF7FCF830BFFDE7FB791349B9
S31520004980FA6841F82320FB791149BA6841F82320B7
S31520004990FB6801225A60FB7D002B01D0FFF795F9B9
S315200049A000BF1837BD4680BDD4C00120813E0020FF
S315200049B090C00120E93E00209CC00120513F0020EC
S315200049C078A6002000040240C4A60020D458012066
S315200049D0C858012080B586B002AFF860B9607A6009
S315200049E0FFF764F9FFF7EAFEBB68002B16D00F48E5
S315200049F0FCF7EEFB03461A460D4B1A600D4B0122BF
S31520004A001A607B680093BB68FA6800210020FFF7D4
S31520004A10E9FC084B00221A60FFF7B2FCFFF7A8FC5E
S31520004A20002318461037BD4680BD00BF000C00404D
S31520004A30BC580120B458012080B582B000AF786000
S31520004A407B680E4A93420AD101214FF0007002F092
S31520004A50DBFE00214FF0007002F0D6FE09E00121B6
S31520004A604FF0806002F0D0FE00214FF0806002F00F
S31520004A70CBFE00BF0837BD4680BD00BF00640040A6
S31520004A8080B485B000AF786039600023FB730023C3
S31520004A90BB607B681B6823F002027B681A607B6818
S31520004AA01B6843F001027B681A6002E0BB68013391
S31520004AB0BB607B685B6803F00103012B04D0BB68F5
S31520004AC04FF6FF729342F1D17B685B6803F00103D6
S31520004AD0012B02D00023FB739CE03B689B79012BC2
S31520004AE006D17B681B6843F080027B681A6005E06C
S31520004AF07B681B6823F080027B681A603B68DB7941
S31520004B00012B06D17B681B6843F040027B681A6044
S31520004B1005E07B681B6823F040027B681A603B68CF
S31520004B201B7A012B06D17B681B6843F020027B6829
S31520004B301A6005E07B681B6823F020027B681A60F8
S31520004B403B685B7A012B06D17B681B6843F0100219
S31520004B507B681A6005E07B681B6823F010027B687F
S31520004B601A603B689B7A012B06D17B681B6843F051
S31520004B7008027B681A6005E07B681B6823F0080240
S31520004B807B681A603B68DB7A012B06D17B681B6841
S31520004B9043F004027B681A6005E07B681B6823F0FB
S31520004BA004027B681A603B689B789A073B68DB782F
S31520004BB01B061A433B681B791B041A433B685B7927
S31520004BC01B051A433B681B88013B1A437B68DA6145
S31520004BD07B681B6823F001027B681A600023BB6098
S31520004BE002E0BB680133BB607B685B6803F00103AE
S31520004BF0012B04D1BB684FF6FF729342F1D17B683B
S31520004C005B6803F00103012B02D10023FB7301E053
S31520004C100123FB73FB7B18461437BD465DF8047BE6
S31520004C20704790B484B000AF78600023FB607B6847
S31520004C309B7A1A4601239340FB605A4BD3F80032E5
S31520004C40584A43F00103C2F80032564BD3F81C22CF
S31520004C50FB68DB4353491340C1F81C327B681B7B3E
S31520004C60002B29D14F4BD3F80C22FB68DB434D494F
S31520004C701340C1F80C327B68DB881B047A685288A3
S31520004C80144648497A68927A104643EA040200F1AB
S31520004C90480341F833207B689B881B047A68128876
S31520004CA0144640497A68927A104643EA040200F193
S31520004CB04803DB000B445A607B681B7B012B28D101
S31520004CC0384BD3F80C223749FB681343C1F80C3212
S31520004CD07B681B881B047A685288144631497A6897
S31520004CE0927A104643EA040200F1480341F8332041
S31520004CF07B689B881B047A68D288144629497A687F
S31520004D00927A104643EA040200F14803DB000B4482
S31520004D105A607B68DB7A002B09D1224BD3F8042218
S31520004D20FB68DB431F491340C1F8043207E01D4BE3
S31520004D30D3F804221B49FB681343C1F804327B686D
S31520004D401B89002B08D1174BD3F81422FB68DB43B1
S31520004D5014491340C1F814327B681B89012B07D1F3
S31520004D60104BD3F814220F49FB681343C1F81432B1
S31520004D707B685B7B012B07D10A4BD3F81C220949A0
S31520004D80FB681343C1F81C32064BD3F80032054AA0
S31520004D9023F00103C2F8003200BF1037BD4690BC95
S31520004DA0704700BF0064004080B483B000AF7860D5
S31520004DB07B6800229A717B680022DA717B68002268
S31520004DC01A727B6800225A727B6800229A727B686C
S31520004DD00022DA727B6800229A707B680022DA70E1
S31520004DE07B6803221A717B6802225A717B68012232
S31520004DF01A8000BF0C37BD465DF8047B704780B42F
S31520004E0083B000AF0346FB71144BD3F80032134A2C
S31520004E1043F00103C2F80032104BD3F800320F4A98
S31520004E2023F47C5323F00E03C2F800320B4BD3F845
S31520004E300022FB791B0209491343C1F80032074BB4
S31520004E40D3F80032054A23F00103C2F8003200BF2E
S31520004E500C37BD465DF8047B704700BF00640040F8
S31520004E6080B483B000AF78600B46FB70FB78002BD4
S31520004E7006D07B681B6843F480327B681A6005E0A5
S31520004E807B681B6823F480327B681A6000BF0C376E
S31520004E90BD465DF8047B704780B483B000AF786070
S31520004EA00B46FB70FB78002B1ED07B681B6843F0FB
S31520004EB080027B681A607B68D3F8843143F4807261
S31520004EC07B68C3F884217B68D3F8943143F48072DD
S31520004ED07B68C3F894217B68D3F8A43143F48072AD
S31520004EE07B68C3F8A4211DE07B681B6823F0800241
S31520004EF07B681A607B68D3F8843123F480727B68E0
S31520004F00C3F884217B68D3F8943123F480727B68BC
S31520004F10C3F894217B68D3F8A43123F480727B688C
S31520004F20C3F8A42100BF0C37BD465DF8047B70474B
S31520004F3080B485B000AF786039600023FB737B684E
S31520004F409B6803F08063B3F1806F02D10023FB736B
S31520004F5015E07B689B6803F00063B3F1006F02D114
S31520004F600123FB730BE07B689B6803F08053B3F14E
S31520004F70805F02D10223FB7301E00423FB73FB7BDA
S31520004F80042B00F09F80FB7B7A6818331B011344A7
S31520004F901A68FB7B02F00102796818331B010B4467
S31520004FA01A603B681B7A002B13D1FB7B7A68183377
S31520004FB01B01134419683B681B685B053A68527AE3
S31520004FC01A43FB7B0A43796818331B010B441A608A
S31520004FD015E0FB7B7A6818331B01134419683B687C
S31520004FE05B68DB003A68127A13433A68527A1A43AE
S31520004FF0FB7B0A43796818331B010B441A603B6814
S315200050009B7A03F00F03DAB23B689A72FB7B7A68CD
S3152000501018331B01134404331A68FB7B22F00F025A
S31520005020796818331B010B4404331A60FB7B7A68BA
S3152000503018331B01134404331A683B689B7A1946BC
S31520005040FB7B0A43796818331B010B4404331A602F
S315200050503B689B7B1A063B685B7B1B041A433B68B9
S315200050601B7B1B021A433B68DB7A1946FB7B0A43F0
S3152000507079681B010B4403F5C4731A603B689B7C5B
S315200050801A063B685B7C1B041A433B681B7C1B028D
S315200050901A433B68DB7B1946FB7B0A4379681B0175
S315200050A00B4403F5C6731A60FB7B7A6818331B0121
S315200050B013441A68FB7B42F00102796818331B01FE
S315200050C00B441A60FB7B18461437BD465DF8047BFB
S315200050D0704780B485B000AF78600B46FB70002324
S315200050E0FB60FB78022B12D0022B16DC002B02D0A1
S315200050F0012B06D011E07B689A68314B1340FB6088
S315200051000EE07B689A682F4B1340FB6008E07B68B3
S315200051109A682D4B1340FB6002E00023FB6000BF22
S31520005120FB68294A93423DD0FB68274A93423CD8E4
S31520005130FB68264A93422CD0FB68244A934234D8F3
S31520005140FB68204A93422AD0FB681E4A93422CD8F9
S31520005150FB681F4A934219D0FB681D4A934224D804
S31520005160FB68174A934217D0FB68154A93421CD80E
S31520005170FB68002B04D0FB68164A934203D014E048
S315200051800223FB6014E00023FB6011E00023FB6098
S315200051900EE00023FB600BE00123FB6008E0012307
S315200051A0FB6005E00123FB6002E00023FB6000BFFB
S315200051B0FB68DBB218461437BD465DF8047B7047A2
S315200051C00300000400030008000003100000011083
S315200051D0000100080100000480B483B000AF7860AD
S315200051E00B46FB70FB78022B14D0022B19DC002B0C
S315200051F002D0012B07D014E07B689B6843F0800225
S315200052007B689A600EE07B689B6843F400427B686B
S315200052109A6007E07B689B6843F400027B689A608B
S3152000522000E000BF00BF0C37BD465DF8047B704729
S3152000523080B485B000AFF8600B467A60FB72FB7ACB
S31520005240FA681B331B0113441B68DBB203F004030B
S31520005250DAB27B681A727B681B7A002B0BD1FB7A39
S31520005260FA681B331B0113441B685B0DC3F30A0248
S315200052707B681A600AE0FB7AFA681B331B01134429
S315200052801B68DB0823F060427B685A60FB7AFA6869
S315200052901B331B0113441B68DBB203F00203DAB293
S315200052A07B685A72FB7AFA681B331B01134404335A
S315200052B01B68DBB203F00F03DAB27B689A72FB7AC3
S315200052C0FA681B331B01134404331B681B0ADAB22A
S315200052D07B68DA74FB7AFA681B01134403F5DC73E6
S315200052E01B68DAB27B68DA72FB7AFA681B01134410
S315200052F003F5DC731B681B0ADAB27B681A73FB7A28
S31520005300FA681B01134403F5DC731B681B0CDAB225
S315200053107B685A73FB7AFA681B01134403F5DC7326
S315200053201B681B0EDAB27B689A73FB7AFA681B013C
S31520005330134403F5DE731B68DAB27B68DA73FB7AF3
S31520005340FA681B01134403F5DE731B681B0ADAB2E5
S315200053507B681A74FB7AFA681B01134403F5DE7323
S315200053601B681B0CDAB27B685A74FB7AFA681B013D
S31520005370134403F5DE731B681B0EDAB27B689A743E
S31520005380FB7A002B06D1FB68DB6843F02002FB6822
S31520005390DA6005E0FB681B6943F02002FB681A61AE
S315200053A000BF1437BD465DF8047B704780B483B0D8
S315200053B000AF78600B46FB70FB78002B06D17B682C
S315200053C0DB6843F020027B68DA6005E07B681B69B6
S315200053D043F020027B681A6100BF0C37BD465DF89A
S315200053E0047B704780B485B000AF78600B46FB70B5
S315200053F00023FB73FB78002B06D17B68DB68DBB2CE
S3152000540003F00303FB730BE0FB78012B06D17B68CB
S315200054101B69DBB203F00303FB7301E00023FB737C
S31520005420FB7B18461437BD465DF8047B704780B475
S3152000543085B000AF78600B46FB700023FB734FF6F8
S31520005440FF73BB60FB78002B20D17B681B6823F0A1
S31520005450030343F001027B681A6002E0BB68013B4C
S31520005460BB607B685B6803F00303012B02D0BB683B
S31520005470002BF3D17B685B6803F00303012B02D07A
S315200054800023FB734AE00123FB7347E0FB78012BE3
S315200054901ED17B681B6823F003027B681A6002E03A
S315200054A0BB68013BBB607B685B6803F00303002B92
S315200054B002D0BB68002BF3D17B685B6803F0030343
S315200054C0002B02D00023FB7328E00123FB7325E089
S315200054D0FB78022B20D17B681B6823F0030343F063
S315200054E002027B681A6002E0BB68013BBB607B68F6
S315200054F05B6803F00303022B02D0BB68002BF3D1B9
