S01400006275696C642F5254532D4C61622E7331396C
S3152000000000BFDFF814D002F03EF800F0B7FD02F092
S315200000104CB8FEE700BF000000C001200000000031
S3152000002080B483B000AF78607B68002B05DB7B68EB
S31520000030022B02DC7B68DBB200E0002318460C377B
S31520000040BD465DF8047B704780B584B000AF78600C
S31520000050786808F00BFD4FF000021D4B08F09AFE61
S3152000006002460B4643EC172BB0EE471AF0EE671A02
S315200000709FED130B09F08CF851EC100B4FF000029A
S31520000080144B08F05DFD02460B46C7E90223D7E96B
S31520000090020102460B4608F09DFB02460B460AA1CA
S315200000A0D1E9000108F076FE02460B4610461946B5
S315200000B008F0F6FF034618461037BD4680BD00BF40
S315200000C000000000000000400000000080842E4157
S315200000D00000284000807B4080B582B000AF6FF0E2
S315200000E009037B600FE00C4B1B687A6813443B6066
S315200000F07868FFF7A9FF024608493B6841F82320A4
S315200001007B6801337B607B680E2BECDD00BF00BF74
S315200001100837BD4680BD00BFA4B6002050E10020B0
S3152000012080B584B000AF786039603B6813F1050F65
S3152000013002DB3B68052B04DD1349786801F0D6FB0A
S315200001401EE00023FB6014E0104AFB6852F82320CF
S315200001500F4B1B681A443B6813440E4A52F823304F
S31520000160BB60BA680C49786801F0C0FBFB680133B4
S31520000170FB60FB681F2BE7DD0849786801F0B6FBBA
S315200001801037BD4680BD00BF5CB20020A4B500205C
S31520000190A4B6002050E1002078B200207CB20020D6
S315200001A080B58EB002AFF860B9607A607B68462B66
S315200001B003D07B68652B25D002E1BB6808334FF45A
S315200001C00072002118460AF0CBF9FB680022C3F81A
S315200001D08020BB680022C3F81022BB680022C3F827
S315200001E01422BB680022C3F81822BB680022C3F879
S315200001F01C22BB680022C3F80C227949794801F0F9
S3152000020075FBE9E000237B62FB68D3F88030FA684F
S315200002100021D154FB6818460AF0CEF87862BB68F4
S31520000220D3F81022BB68023253F822303B62BB68F7
S31520000230D3F81C32FB61BB68D3F81022BB680232AC
S31520000240796A43F82210BB68D3F810325A1CBB686F
S31520000250D3F808329A4204D0BB68D3F8103201335F
S3152000026000E00023BA68C2F81032BB68D3F80C321B
S315200002705A1CBB68C3F80C22BB68D3F81C223B6A05
S31520000280D21A7B6A1A44BB68C3F81C22BB68D3F80F
S3152000029014323A6A9A421FD1BB68D3F81832FA69E7
S315200002A0D21A3B6AD31A7B617A6A7B699A4204DD49
S315200002B0BB687A6AC3F8142203E0BB687A69C3F87C
S315200002C01422BB68D3F818327A6A9A423EDABB689F
S315200002D07A6AC3F8182239E0BB68D3F818323A6A2A
S315200002E09A421FD1BB68D3F81432FA69D21A3B6AF4
S315200002F0D31ABB617A6ABB699A4204DABB687A6A06
S31520000300C3F8182203E0BB68BA69C3F81822BB6891
S31520000310D3F814327A6A9A4218DDBB687A6AC3F82F
S31520000320142213E0BB68D3F814327A6A9A4203DDAA
S31520000330BB687A6AC3F81422BB68D3F818327A6A83
S315200003409A4203DABB687A6AC3F81822BB68D3F8E4
S315200003500C32012B04D17B6AFB627B6ABB6222E0F2
S31520000360BB68D3F80C32022B0FD1BB68D3F81C32F2
S31520000370FB62BB68D3F81422BB68D3F81832134447
S31520000380DA0F13445B10BB620DE0BB68D3F81C3256
S31520000390FB62BB68D3F81832FA6AD21ABB68D3F864
S315200003A01432D31ABB62BB6A0093FB6A7A6A0E497F
S315200003B00C4801F09BFAFB680022C3F880200BE072
S315200003C0FB68D3F88030591CFA68C2F880107A6826
S315200003D0D1B2FA68D15400BF00BF3037BD4680BDC8
S315200003E080B20020C8B8002094B2002080B584B026
S315200003F000AF78607B681A697B681B69D3F8803008
S315200004000021D1547B681B69184609F0D5FFF86096
S315200004107B681B690022C3F88020FB6818461037CA
S31520000420BD4680BD90B58FB002AFF860B9607A60E6
S31520000430BB68443B352B00F2568101A252F823F0CB
S315200004408B060020E7060020E7060020E7060020AE
S31520000450E7060020E7060020E7060020C506002064
S31520000460E7060020E7060020E7060020E706002032
S31520000470E7060020E7060020E706002019050020F1
S31520000480E7060020E7060020E7060020E706002012
S31520000490E7060020E7060020E7060020E706002002
S315200004A0E7060020E7060020E7060020E7060020F2
S315200004B0E7060020E7060020E7060020E7060020E2
S315200004C021060020E7060020E7060020610600201E
S315200004D0E706002015060020E70600206505002017
S315200004E0F70500202D060020E70600208B050020BA
S315200004F031050020D3060020E7060020090600204B
S31520000500D3050020E706002051060020E70600203C
S31520000510E7060020AF05002000230093784B794A98
S315200005200021002002F0FCFA774B00221A70E2E04C
S31520000530754B93F90030002B08D000230093734BA2
S31520000540704A0021002002F0EBFAD4E00023009349
S315200005506F4B6C4A0021002002F0E2FA6A4B01221E
S315200005601A70C8E07B683B623B6A13F1050F02DB19
S315200005703B6A052B03DD6749674801F0B7F93A6AFC
S315200005806649604802F06AFBB5E07B68BB62BB6ADD
S315200005903B2B02DDBB6AF02B03DD61495E4801F08F
S315200005A0A5F9BA6A5F49574802F058FBA3E0002232
S315200005B05D495E4802F052FB044600225C495B48D6
S315200005C002F04CFB034622465A49534801F08EF965
S315200005D091E000225449584802F040FB044600228C
S315200005E05349554802F03AFB0346224653494A48A6
S315200005F001F07CF97FE000230093514B514A002102
S31520000600822002F08DFA76E001224F494D4802F011
S3152000061025FB70E000224D494A4802F01FFB6AE0A4
S3152000062000224B49474802F019FB64E00022494961
S31520000630494802F013FB78627B6A002B0CBF01232A
S315200006400023DBB21A464549434802F007FB52E035
S315200006507B68FB62FA6A42493F4802F0FFFA4AE0A9
S31520000660002240493C4802F0F9FAF861FB693E4A0B
S3152000067082FB03129210DB17D01A002300933B4B08
S31520000680354A002102F04CFA35E00022384932483A
S3152000069002F0E4FA78617B69002B0CBF012300236A
S315200006A0DBB21A4633492C4802F0D8FA7B69002B74
S315200006B00CBF01230023DBB21A462F49214802F042
S315200006C0CDFA18E07B68BB61B9691348FFF728FDAE
S315200006D011E0FB6800221A75284B1A4628490E4855
S315200006E001F004F907E0FB681B69BA68254918463A
S315200006F0FFF756FD00BF00BF3437BD4690BD00BF93
S31520000700F5170020A4DF00204CE1002091160020E0
S31520000710D1150020C0B20020C8B800209B180020A8
S3152000072008B30020211800208121002090CF00202E
S31520000730AB21002054B30020D0BF002078B3002086
S31520000740D10B002080DF0020C50C0020910C00205A
S31520000750590C00209F33002050DF00201133002049
S315200007602D330020B733002067666666753100207A
S31520000770CF330020673300203D0C0020ECAF002053
S315200007809CB30020ACBD002080B58AB000AFF860D5
S31520000790B9601346FB7101233B7501237B7500234A
S315200007A07B62BB68B3F1004F1FD000233B6217E08A
S315200007B0FB681A693B6A13441B78002B14D0FB682C
S315200007C01A693B6A1344197807F117023B6A1344E6
S315200007D00A461A707B6A01337B623B6A01333B62AD
S315200007E03B6A062BE4DD00E000BF07F117027B6AB7
S315200007F01344FA791A707B6A013328333B4400226A
S3152000080003F8112C7B6A02337B627B6ADBB2BB75F1
S3152000081007F114031A460449044802F01FFA00BFE0
S315200008202837BD4680BD00BF27150020E8BC002024
S3152000083080B586B000AF78603960574B1A46574965
S31520000840574802F00BFA3A685649554802F006FA1C
S31520000850554B1A465149524802F000FA7B681B7DD7
S31520000860002B2AD13B68303BFB60F868FFF7D8FBAA
S315200008700346FB72FB7A002B1AD07B68FA7A1A752C
S31520000880FA7A4A4913465B0013449B000B4404330F
S315200008901968FA7A454813465B0013449B000344C3
S315200008A008331B680A4642493D4801F01FF86FE0AD
S315200008B040493B4801F01AF86AE07B681B7D012B12
S315200008C029D14FF000433B613B682D2B05D03B6877
S315200008D0392B0FDC3B682F2B0CDD7B6819697B6875
S315200008E01A69D2F88030581CC2F880003A68D2B211
S315200008F0CA544DE07868FFF779FD38613A6939685E
S315200009007868FFF78FFD3B68DBB21A46396978684D
S31520000910FFF73AFF3CE07B681B7D022B38D14FF076
S3152000092000437B613B682D2B05D03B68392B0FDCC0
S315200009303B682F2B0CDD7B6819697B681A69D2F816
S315200009408030581CC2F880003A68D2B2CA541FE0E0
S315200009503B686B2B08D03B686F2B05D03B68762B0A
S3152000096002D03B684B2B0BD17868FFF73FFD7861AF
S315200009703B68DBB21A4679697868FFF705FF07E01E
S315200009803B68DBB21A4679697868FFF7FDFEFFE718
S3152000099000BF1837BD4680BDA4B300207F1A0020B3
S315200009A0C8B80020D51A00207CB2002038B200201A
S315200009B0ACB30020C4B3002080B58CB000AF786003
S315200009C0396007F114031A464849494802F046F9A6
S315200009D0484B1A464849494802F040F907F11403A2
S315200009E003331A464449454802F038F94FF000438C
S315200009F0FB62202387F82B30BB7D002B36D0BB7DB6
S31520000A00022B03D1FB7D87F82B302FE0BB7D023BE9
S31520000A1030333B4413F8193C87F82B3007F10C038D
S31520000A2000221A605A6000237B620DE007F117024C
S31520000A307B6A1344197807F10C027B6A13440A4631
S31520000A401A707B6A01337B62BB7D023B7A6A9A42CB
S31520000A50ECDBBB7D023B30333B44002203F8242CE5
S31520000A6007F10C03184609F0A7FCF8627B681B7D8A
S31520000A70002B2BD197F82B30303B3B62386AFFF79F
S31520000A80CFFA0346FB77FB7F002B1AD07B68FA7FD1
S31520000A901A75FA7F1A4913465B0013449B000B44D0
S31520000AA004331968FA7F164813465B0013449B00EB
S31520000AB0034408331B680A461249104800F016FF03
S31520000AC00FE011490D4800F011FF0AE07B681B7DFD
S31520000AD0022B06D197F82B30FA6A19467868FFF769
S31520000AE0A1FC00BF3037BD4680BD00BF5D1400208D
S31520000AF0E8BC0020E0B300207F1A0020C8B8002000
S31520000B0038B20020ACB30020C4B3002080B582B038
S31520000B1000AF78603960FFF7DFFA00220E490F48F0
S31520000B2002F09CF800220E490E4802F097F80022A7
S31520000B300D490E4802F092F800220D490B4802F0AA
S31520000B408DF80C4B1A460C49064800F0CFFE00BF24
S31520000B500837BD4680BD00BF15120020E8BC002026
S31520000B60D9190020C8B800206D1C002098BD00208F
S31520000B70FD1C0020ECAF0020F4B3002080B500AFB0
S31520000B8000220B490B4802F05DFA01220A490B4864
S31520000B9002F058FA02220A490A4802F053FA0022C1
S31520000BA009490A4802F0B4FA0023184680BD00BF5E
S31520000BB00B1B0020C8B80020D5120020E8BC00205E
S31520000BC03D1D002098BD00200D0B0020B0B8002050
S31520000BD080B588B002AF78607B685B69002B27D12F
S31520000BE07B681B6A184601F06BFA7B689B683B6141
S31520000BF000237B6102E07B6901337B617A693B6973
S31520000C009A42F8DB7B681B6A184601F06DFA7B680E
S31520000C109B69002B01D0822300E00023FB60002388
S31520000C200093054B7A68F968822001F079FF00E08D
S31520000C3000BF1837BD4680BDD10B002080B483B0DD
S31520000C4000AF786039607B683A689A6100BF0C37DC
S31520000C50BD465DF8047B704780B582B000AF7860F2
S31520000C607B689A687B68DB68D31A23EAE3727B6821
S31520000C709A607B68D8697B689B681A46034900F0AE
S31520000C8035FE00BF0837BD4680BD00BF04B4002036
S31520000C9080B582B000AF78607B689A687B68DB6835
S31520000CA01A447B689A607B68D8697B689B681A4679
S31520000CB0034900F01BFE00BF0837BD4680BD00BFBC
S31520000CC004B4002080B483B000AF786039607B68BC
S31520000CD03A685A6100BF0C37BD465DF8047B704701
S31520000CE080B582B000AF786039607B683A681A6157
S31520000CF07B68D8697B689B681A46034900F0F6FD35
S31520000D0000BF0837BD4680BD04B4002080B483B040
S31520000D1000AF786039607B683A68DA6000BF0C37CC
S31520000D20BD465DF8047B704790B58DB002AF786004
S31520000D307B685B6B00229A49184601F08FFF786228
S31520000D407B681B7A002B03D0012B00F01A81A6E1C9
S31520000D507B6A002B40F0C28000230093914B7A6877
S31520000D600021914801F0DCFE02467B68DA627B684E
S31520000D701433184602F052F87B681833184602F0EE
S31520000D806BF80346894A82FB03125213DB17D31AE8
S31520000D903B617B681833184602F05EF80246834BA7
S31520000DA083FB02135913D317CB1A7F4901FB03F395
S31520000DB0D31A7F4A82FB03125211DB17D21A3B69E0
S31520000DC04FF47A7101FB03F31344FB60FB68632B3A
S31520000DD00FDC7B681433184602F020F87B68183342
S31520000DE0184602F01BF800227249734801F036FFBC
S31520000DF055E17B68DB69002B06D17B68DA697B6865
S31520000E000832F96843F82210F968786800F08CF9FE
S31520000E100346002B09D07B681B6B6849184600F0F7
S31520000E2065FD786800F050F93CE07B68DA697B68FC
S31520000E300832F96843F822107B68DB69591C604B3D
S31520000E4083FB0132CB17D21A13465B0013445B0097
S31520000E50CA1A7B68DA617B68DB69022B22DD7B6834
S31520000E601A6A7B685B6A1A447B689B6A1344554AF4
S31520000E7082FB0312DB17D31ABB604EF66022BB68D7
S31520000E8092FBF3F31A465049504801F0E7FE7B687F
S31520000E90186B4EF66022BB6892FBF3F31A464C4958
S31520000EA000F024FD7B68186B7B68196A7B685C6A96
S31520000EB07B689B6A7A68D2690192009323460A4628
S31520000EC0444900F013FD7B681833184601F0A6FF4D
S31520000ED001223849384801F0C1FEDFE07B6814332F
S31520000EE0184601F0B9FF0346304A82FB031252131B
S31520000EF0DB17D31ABB617B681433184601F0ACFFAD
S31520000F0002462A4B83FB02135913D317CB1A2649C1
S31520000F1001FB03F3D31A264A82FB03125211DB1775
S31520000F20D21ABB694FF47A7101FB03F313447B6138
S31520000F307B681433184601F071FF7B69632B0FDC45
S31520000F407B681433184601F069FF7B68183318460E
S31520000F5001F064FF00221749174801F07FFE9EE04A
S31520000F6000221449144801F079FE7B6940F2E632EA
S31520000F70934200F393807B68DB6A184601F0F4FE07
S31520000F808CE07B6A002B27D17B681433184601F04E
S31520000F9045FF01220749084801F060FE7FE000BFB7
S31520000FA09D1C002001110020A086010089B5F8149F
S31520000FB01F85EB51FD1C002098BD002034B4002075
S31520000FC0ABAAAA2A5655555521180020A4DF002081
S31520000FD050B4002060B400207B681433184601F01A
S31520000FE03BFF03462F4A82FB03125213DB17D31A09
S31520000FF03B627B681433184601F02EFF0246294BCC
S3152000100083FB02135913D317CB1A274901FB03F38A
S31520001010D31A264A82FB03125211DB17D21A3B6AD5
S315200010204FF47A7101FB03F31344FB617B6814339D
S31520001030184601F0F3FEFB69632B0FDC7B68143343
S31520001040184601F0EBFE7B681833184601F0E6FEE1
S3152000105000221749174801F001FE20E07B681B6B30
S31520001060FA691549184600F041FC0022104911483A
S3152000107001F0F4FDFB69B3F5FA6F0BDD78220F4919
S315200010800F4801F0EBFD7B681B6B78220D49184653
S3152000109000F02CFC7B6800221A7200E000BF2C377F
S315200010A0BD4690BD89B5F814A08601001F85EB5179
S315200010B0FD1C002098BD002088B4002021180020A7
S315200010C0A4DF0020BCB4002080B485B000AF7860D7
S315200010D00023FB6008E07B68FA680832002143F8A9
S315200010E02210FB680133FB60FB68022BF3DD7B6873
S315200010F00022DA6100BF1437BD465DF8047B7047D5
S3152000110080B582B000AF78607B6801221A727B6856
S315200011101B6B0449184600F0E9FB00BF0837BD46A3
S3152000112080BD00BFD0B4002080B487B000AF786007
S31520001130396064233B617B68DB69032BA8BF0323EB
S31520001140FB6000237B6115E07B687A69083253F8DF
S3152000115022303A68D31ABB60BB68002BB8BF5B420B
S31520001160BB60BA683B699A4201DD012307E07B69CF
S3152000117001337B617A69FB689A42E5DB00231846D6
S315200011801C37BD465DF8047B704700BF80B483B032
S3152000119000AF0346FB71FB7903F01F03012202FA1D
S315200011A003F1064A97F907305B0942F8231000BF7E
S315200011B00C37BD465DF8047B704700BF00E100E0B8
S315200011C080B483B000AF03463960FB7197F90730CE
S315200011D0002B0BDA3B68DAB20C49FB7903F00F03DC
S315200011E0043B1201D2B20B441A7609E03B68DAB20C
S315200011F0074997F907301201D2B20B4483F800232E
S3152000120000BF0C37BD465DF8047B704700ED00E05B
S3152000121000E100E080B586B000AF786039607B6879
S3152000122000229A617B689A697B685A617B685A6951
S315200012307B68DA61224801F039F807F10C03184679
S3152000124002F012FB0023BB740023FB7400233B75C2
S3152000125000237B750023BB750023FB750023BB731E
S315200012600023FB7302233B7403237B740723BB8178
S3152000127007F10C031946134802F062F90346002BC6
S3152000128002D1114801F012F807F10C0319460F4854
S3152000129002F056F90346002B02D10D4801F006F85C
S315200012A002211420FFF78CFF1420FFF76FFF012285
S315200012B00221044802F016FF00BF1837BD4680BD44
S315200012C0F0B400200064004018B5002000680040FB
S315200012D030B50020B0B58AB002AF786039607B683F
S315200012E09B685A49184602F01BFF0346012B02D081
S315200012F0574800F0DBFF7B68DB69072B00F39E80F5
S315200013007B689B6807F108020021184602F0F0FC72
S31520001310BB681B09DBB27A68526903F07F03D8B237
S31520001320796813469B0013445B0013440B44203317
S3152000133002461A70BB68DBB27A68526903F00F0363
S31520001340D8B2796813469B0013445B0013440B44C0
S31520001350213302461A70BB7C7A68526903F00F0368
S31520001360D8B2796813469B0013445B0013440B44A0
S31520001370223302461A700023FB7715E0FB7F7A683A
S315200013805269F97F20333B4413F80D4C7868134695
S315200013909B0013445B00134403440B44233322462F
S315200013A01A70FB7F0133FB777B685A69796813468D
S315200013B09B0013445B0013440B4422331B78FA7FB3
S315200013C09A42DBD37B68DB68002B25D07B68DC6800
S315200013D07B681D697B685A69796813469B001344AC
S315200013E05B0013440B4420331B7819017B685A6930
S315200013F0786813469B0013445B001344034421334F
S315200014001B780B4400932B4622460021002001F036
S3152000141087FB104B01221A607B685B6901335A42B5
S3152000142003F0070302F0070258BF53427A6853615C
S315200014307B68DB695A1C7B68DA6102E0064800F0AB
S3152000144035FF00BF2037BD46B0BD00BF03000012E8
S3152000145048B500200065012070B5002090B484B006
S3152000146000AF786039607B68DB69002B55DD7B68CF
S315200014709A69796813469B0013445B0013440B4416
S3152000148020331A783B681A707B689A697968134604
S315200014909B0013445B0013440B4421331A783B68AA
S315200014A05A707B689A69796813469B0013445B00DF
S315200014B013440B4422331A783B689A700023FB733B
S315200014C013E07B689A69F87BF97B7C6813469B005E
S315200014D013445B0013442344034423331A783B68A4
S315200014E00B44DA70FB7B0133FB733B689B78FA7BFA
S315200014F09A42E6D37B689B6901335A4203F007037D
S3152000150002F0070258BF53427A6893617B68DB6911
S315200015105A1E7B68DA61002300E001231846103743
S31520001520BD4690BC704780B58AB000AF7860396000
S315200015307B689B683B620023FB77234B3B623B68BF
S315200015401B781B013A6852781344BB6000237B74D6
S3152000155000233B743B689B78082B02D93B68082202
S315200015609A703B689B78BB74002387F827300FE07E
S3152000157097F8272097F8273039680A44D2782833F5
S315200015803B4403F8152C97F82730013387F827308A
S315200015903B689B7897F827209A42E9D307F10803FE
S315200015A01946386A02F024FA0346FB77FB7F042BA0
S315200015B004D1064800F07AFE012300E000231846F5
S315200015C02837BD4680BD00BF0068004090B500208A
S315200015D080B584B002AF78607B685B6A4FF47A721C
S315200015E0DA607B685B6A4FF4FA721A617B685B6A21
S315200015F001225A617B685B6A01229A617B685B6A79
S315200016000122DA617B685B6A00221A627B685B6A68
S3152000161000225A627B6878229A607B684FF4FA72BD
S31520001620DA607B6832221A617B6800229A617B68C5
S3152000163000225A617B689B6A00221149184601F0F4
S315200016400DFB7B685B6A00220E49184601F006FBFB
S315200016507B680022DA617B685A6A002300930A4B72
S315200016600021002001F05CFA00230093074B7A68E2
S315200016700021002001F054FA00BF0837BD4680BD86
S31520001680BD1C0020E733002075310020D116002034
S3152000169080B483B000AF78607B6800229A6100BF77
S315200016A00C37BD465DF8047B704780B582B000AF2D
S315200016B0786039607B689B6A01220449184601F0EC
S315200016C0CDFA00BF0837BD4680BD00BFBD1C002037
S315200016D080B586B002AF78607B689B693C4A52F839
S315200016E023203C4B1B681A447B685B6913443A4AA7
S315200016F052F82330FB607B68DB6807EE903AB8EE41
S31520001700E77A7B689B69354A9B001344D3ED007AC0
S3152000171067EE277AFDEEE77A17EE903ABB607B6894
S315200017209B6A00222E49184601F098FA7B685A6A6D
S31520001730FB6800932B4B0021002001F0F1F97B6818
S315200017405A6A01230093284B0021002001F0E8F972
S315200017507B681B69BA68D31A642202FB03F07B6894
S315200017605A6A00230093204B002101F0D9F9BB6867
S31520001770DA0F13445B101A46642303FB02F000239E
S3152000178000931A4B7A68002101F0CAF97B689B699D
S315200017901F2B03D17B6800229A6104E07B689B693A
S315200017A05A1C7B689A617B68DB69002B0BD1BB686E
S315200017B0642202FB03F0002300930D4B7A6800217C
S315200017C001F0AEF900E000BF1037BD4680BD00BF76
S315200017D0A4B50020A4B6002050E1002024B60020A5
S315200017E0BD1C002083330020F5320020AB160020DC
S315200017F0D116002080B582B000AF786001217868CC
S3152000180000F065F87B685B6A01220449184601F0FE
S3152000181025FA00BF0837BD4680BD00BFE73300204C
S3152000182080B584B000AF786039603B68F02B01DD6D
S31520001830F0233B603B683B2B01DC3C233B607B6811
S315200018403A689A607B689B684EF6602292FBF3F3B7
S31520001850FB60F968786800F004F800BF1037BD46D1
S3152000186080BD80B483B000AF786039607B683A6809
S31520001870DA6000BF0C37BD465DF8047B704780B444
S3152000188083B000AF786039607B683A681A6100BF20
S315200018900C37BD465DF8047B704780B483B000AF3B
S315200018A0786039603B68052B01DD05233B603B688A
S315200018B013F1050F02DA6FF004033B607B683A6888
S315200018C05A6100BF0C37BD465DF8047B704780B473
S315200018D083B000AF786039607B683A68DA6100BF10
S315200018E00C37BD465DF8047B704700BF0EB480B54B
S315200018F0ADF2145D00AF07F5A263A3F20C53186096
S3152000190007F5A46207F5A263A3F204531A6007F54C
S31520001910A263A3F2045307F110001B68D7F81C2515
S315200019204FF4A06108F00EFE07F1100207F5A2633E
S31520001930A3F20C530549186801F090F900BF07F28D
S315200019401457BD46BDE8804003B070477F1A00207B
S3152000195080B483B000AF0346FB71FB7903F01F030D
S31520001960012202FA03F1064A97F907305B0942F889
S31520001970231000BF0C37BD465DF8047B704700BFBF
S3152000198000E100E080B483B000AF03463960FB710C
S3152000199097F90730002B0BDA3B68DAB20C49FB7952
S315200019A003F00F03043B1201D2B20B441A7609E06E
S315200019B03B68DAB2074997F907301201D2B20B44D5
S315200019C083F8002300BF0C37BD465DF8047B7047C3
S315200019D000ED00E000E100E080B582B000AF786065
S315200019E039607B6800229A617B689A697B685A61B4
S315200019F07B685A697B68DA61012240F225510A48E0
S31520001A0006F0CAFC002240F22771074806F0C4FC03
S31520001A1002212520FFF7B6FF2520FFF799FF00BFFB
S31520001A200837BD4680BD00BF0010014080B483B09A
S31520001A3000AF78600B46FB707B68DB69B3F5806F7F
S31520001A4017DA7B685B697A681344FA7883F8202072
S31520001A507B685B6901335A42C3F30903C2F3090267
S31520001A6058BF53427A6853617B68DB695A1C7B688E
S31520001A70DA6100BF0C37BD465DF8047B704780B540
S31520001A8082B000AF786039607B68DB69002B18D1A3
S31520001A907B689B68012240F22771184606F07CFC81
S31520001AA00FE03B681B780A2B03D10D217868FFF7DE
S31520001AB0BDFF3B685A1C3A601B7819467868FFF7C9
S31520001AC0B5FF3B681B78002BEBD100BF00BF083762
S31520001AD0BD4680BD80B582B000AF786039607B6836
S31520001AE0DB69002B07D17B689B68012240F22771B6
S31520001AF0184606F051FC3B68DBB219467868FFF7BA
S31520001B0095FF00BF0837BD4680BD80B586B002AFC1
S31520001B10786039607B689B682021184606F084FC33
S31520001B200346012B18D17B689B68184606F09FFA5E
S31520001B300346FB607B68DB68002B0DD07B68DA6888
S31520001B407B681969FB6800930B460021002000F092
S31520001B50E7FF234B01221A607B689B688021184689
S31520001B6006F062FC0346012B34D17B68DB69002B2F
S31520001B7028DD7B6898687B689B697A68134493F8AC
S31520001B802030194606F061FA7B689B6901335A4278
S31520001B90C3F30903C2F3090258BF53427A6893611B
S31520001BA07B68DB695A1E7B68DA617B68DB69002B00
S31520001BB010D17B689B68002240F22771184606F0F8
S31520001BC0EBFB07E07B689B68002240F227711846F2
S31520001BD006F0E2FB002318461037BD4680BD00BF45
S31520001BE00065012080B483B000AF0346FB71FB790A
S31520001BF003F01F03012202FA03F1064A97F9073080
S31520001C005B0942F8231000BF0C37BD465DF8047B04
S31520001C10704700BF00E100E080B483B000AF034608
S31520001C203960FB7197F90730002B0BDA3B68DAB283
S31520001C300C49FB7903F00F03043B1201D2B20B448B
S31520001C401A7609E03B68DAB2074997F9073012019C
S31520001C50D2B20B4483F8002300BF0C37BD465DF893
S31520001C60047B704700ED00E000E100E080B582B023
S31520001C7000AF7860396000220121074803F02FFA6F
S31520001C8002211720FFF7C8FF1720FFF7ABFF00BF81
S31520001C900837BD4680BD00BF0004024080B582B033
S31520001CA000AF786039607B689B688021184603F016
S31520001CB0AAF9034618460837BD4680BD80B582B0CE
S31520001CC000AF786039607B689B683A68D2B20121A0
S31520001CD0184603F004FA00BF0837BD4680BD80B51C
S31520001CE082B000AF786039607B689B680121184616
S31520001CF003F01CFA00BF0837BD4680BD80B584B00E
S31520001D0000AF7860396007F10803184602F082FFB9
S31520001D108023BB6000233B733B68002B01D0082344
S31520001D2000E00C237B730123BB7307F108031846DD
S31520001D3002F0FEFE00BF1037BD4680BD80B584B0E0
S31520001D4002AF78603960802002F0B6FF0346012B8F
S31520001D5014D1802002F0CAFF7B68DB68002B10D0EC
S31520001D607B68DA687B681B690021009100210020CE
S31520001D7000F0D6FE054B01221A6002E0044800F06E
S31520001D8095FA002318460837BD4680BD0065012018
S31520001D90A8B6002080B400AF00BFBD465DF8047B26
S31520001DA0704780B586B000AF454802F0AFFF454882
S31520001DB001F0A2FB444801F09FFB01214FF0007087
S31520001DC003F04CFE01214FF0806003F047FE012115
S31520001DD0022003F0E3FD09220921394803F0B8F96E
S31520001DE009220821364803F0B3F907F110031846F3
S31520001DF003F0CDF84FF400733B6102233B750023BB
S31520001E00BB750023FB7502237B7507F1100319466A
S31520001E102B4803F02DF84FF480733B6102233B756A
S31520001E200023BB750123FB7502237B7507F1100385
S31520001E301946234803F01CF809220621204803F0FE
S31520001E4087F9092205211E4803F082F940233B61C8
S31520001E5002233B750023BB750023FB7502237B758C
S31520001E6007F110031946164803F002F820233B61B8
S31520001E7002233B750023BB750123FB7502237B756B
S31520001E8007F1100319460E4802F0F2FF0023BB7239
S31520001E900023FB7201233B7300233B8000237B80BE
S31520001EA00023BB800023FB8000233B8101237B731F
S31520001EB03B46184601F015FC00BF1837BD4680BDCD
S31520001EC000040240006400400068004080B586B0EF
S31520001ED000AF01214FF0005003F0C0FD07F11003C1
S31520001EE0184603F054F820233B6103233B75002357
S31520001EF0FB7507F1100319460F4802F0B9FF02F0EF
S31520001F00D5FB3B46184602F013FC00233B6000231A
S31520001F107B600023FB603B461946102002F0D4FB71
S31520001F200121102002F01AFC0021082002F0C4FC36
S31520001F3000BF1837BD4680BD0000024080B584B082
S31520001F4000AF01214FF4804003F0A8FD07210120B6
S31520001F5003F0CEFF02F0D2FD3B46184602F05AFEB1
S31520001F6080233B6000233B710C237B710123BB71D3
S31520001F703B46184602F0DCFD07F10803184603F03D
S31520001F8006F80223BB6001233B730123BB730023A6
S31520001F90FB7301237B7307F108031946184802F0E7
S31520001FA067FF0123BB6001233B730123BB7300231F
S31520001FB0FB7301237B7307F108031946104802F0CF
S31520001FC057FF012202210E4803F089F80122012140
S31520001FD00B4803F084F88023BB6000233B73002367
S31520001FE0BB730023FB7301237B7307F10803194698
S31520001FF0034802F03DFF00BF1037BD4680BD00BF3D
S315200020000004024080B483B000AFEFF314833B603A
S315200020103B6823F003037B607B6883F3148800BF4F
S31520002020094B4FF404725A61074B5B69064A43F029
S3152000203008035361054B4FF000425A6000BF0C372E
S31520002040BD465DF8047B704700ED00E030EF00E010
S3152000205080B500AF0121082003F000FD01210820F2
S3152000206003F03CFE00BF80BD80B400AF124A02E000
S31520002070002342F8043B114B9A42F9D300BFBD46D8
S315200020805DF8047B704780B500AFFFF7EDFFFFF7E3
S3152000209081FEFFF786FEFFF719FFFFF74FFFFFF7D9
S315200020A0B1FFFFF7D5FF00BF80BD80B400AF00BFF2
S315200020B0BD465DF8047B7047C8E000203C650120E2
S315200020C080B582B000AF78607B68D3F8B03FB3F5B7
S315200020D0FA7F05D000F0E0FE02467B685A6000E0F9
S315200020E000BF0837BD4680BD90B585B000AF78608B
S315200020F07B68D3F8B03FB3F5FA7F39D000F0CCFE39
S3152000210002467B689A607B689A687B685B68D21A0D
S315200021107B68DA607B68DB68174A82FB03125113FF
S31520002120DA178A1A154901FB02F29A1A13469B00FE
S3152000213013445B00FB607B68D3F8B43FFA689A428D
S3152000214003DD7B68FA68C3F8B42F7B68D3F8B04FF9
S31520002150621C7B68C3F8B02FF86806F087FC02463D
S315200021600B467868A11CC9000144C1E9002300E0A0
S3152000217000BF1437BD4690BD89B5F814A08601006E
S3152000218080B582B000AF78607B68D3F8B43F18463C
S3152000219006F06CFC02460B4643EC172BB0EE470AC2
S315200021A0F0EE670A0837BD4680BD80B586B000AF21
S315200021B078604FF000024FF00003C7E904230023A4
S315200021C0FB6011E07A68FB680233DB001344D3E935
S315200021D00023D7E9040106F0FDFA02460B46C7E9BB
S315200021E00423FB680133FB607B68D3F8B03FFA68B1
S315200021F09A42E7DB7B68D3F8B03F184606F036FCF8
S3152000220002460B46D7E9040106F0C4FD02460B46FA
S3152000221043EC172BB0EE470AF0EE670A1837BD4697
S3152000222080BD00BF80B483B000AF0346FB71FB794D
S3152000223003F01F03012202FA03F1064A97F9073039
S315200022405B0942F8231000BF0C37BD465DF8047BBE
S31520002250704700BF00E100E080B483B000AF0346C2
S315200022603960FB7197F90730002B0BDA3B68DAB23D
S315200022700C49FB7903F00F03043B1201D2B20B4445
S315200022801A7609E03B68DAB2074997F90730120156
S31520002290D2B20B4483F8002300BF0C37BD465DF84D
S315200022A0047B704700ED00E000E100E080B582B0DD
S315200022B000AF78600EE07B681B780D2B07D07B681B
S315200022C05A1C7A601B78184600F05EF902E07B689B
S315200022D001337B607B681B78002BECD100BF00BFED
S315200022E00837BD4680BD80B586B000AF7860002334
S315200022F07B617B6803F00F027B69591C7961104969
S315200023008A5C18333B4403F80C2C7B681B097B60E2
S315200023107B68002BEDD10AE07B69013B7B6107F1ED
S315200023200C027B6913441B78184600F02DF97B6953
S31520002330002BF1D100BF00BF1837BD4680BD00BFBE
S31520002340D0DF002080B59EB000AF78607B68002B80
S3152000235002DA4FF0FF3300E001233B677B683A6FD8
S3152000236002FB03F37B6000237B6779681C4B83FBAE
S3152000237001239A10CB17D21A13469B0013445B00F5
S31520002380CA1A7B6F591C796716498A5C78333B4495
S3152000239003F86C2C7B68124A82FB03129210DB171F
S315200023A0D31A7B607B68002BDFD13B6F002B0EDAC4
S315200023B02D2000F0E9F80AE07B6F013B7B6707F1EF
S315200023C00C027B6F13441B78184600F0DDF87B6FF8
S315200023D0002BF1D100BF00BF7837BD4680BD00BFBE
S315200023E067666666D0DF002080B483B000AF102316
S315200023F07B607B6883F3118800BF00BF0C37BD4626
S315200024005DF8047B704780B483B000AF30237B60D7
S315200024107B6883F3118800BF00BF0C37BD465DF88B
S31520002420047B704780B584B000AF78600B48FFF717
S315200024303DFF0B4B1B68002B02D1094B094A1A6042
S31520002440074B1B68FB60064B1A687B681344044ADB
S315200024501360FB6818461037BD4680BDCCB60020F9
S31520002460B8E100203C65012080B485B000AF7860DB
S3152000247039603B6803F5F95310337A6813607B683B
S315200024801B68BB600023FB6009E0FB689A00BB6801
S3152000249013441A4600231360FB680133FB60FB6874
S315200024A0332BF2DDBB686FF016021A60BB6804336B
S315200024B01A4603231360BB6884331A464FF0807391
S315200024C0136000BF1437BD465DF8047B704780B4A7
S315200024D085B000AF786039607B681B688033FB600D
S315200024E0FB683A681A6000BF1437BD465DF8047B66
S315200024F0704780B584B000AF1C4803F075FD3B1DC6
S31520002500184603F0BDFE40F24733BB803B1D1946FB
S31520002510164803F049FE164B164A1A6002216FF040
S315200025200100FFF799FE144B144A1A6000216FF040
S315200025300400FFF791FE124B124A1A600221322044
S31520002540FFF78AFE3220FFF76DFE0021074803F0D1
S31520002550E1FE0121054803F0AAFF012202210348DA
S3152000256004F079FF00BF1037BD4680BD000C004047
S3152000257038C00120093400202CC001200534002059
S3152000258008C101200F29002080B582B000AF034684
S31520002590FB71FB799BB21946074805F056FD00BF33
S315200025A08021054805F040FF0346002BF8D000BFE8
S315200025B000BF0837BD4680BD0010014080B500AF82
S315200025C0124803F0C3FE03461A46114B1A60114BFC
S315200025D001221A60104B00221A60104B1B68002B38
S315200025E006D00E4B1B680E4A1268002110469847EB
S315200025F0084B00221A60084B1B68002B01D000F004
S315200026005DFA054B00221A6080BD00BF000C004019
S3152000261004650120FC64012000650120106501206D
S315200026201C65012080B500AF124803F08FFE0346DB
S315200026301A46114B1A60114B01221A60104B0022C8
S315200026401A60104B5B68002B06D00E4B5B680E4A57
S315200026505268012110469847084B00221A60084B01
S315200026601B68002B01D000F029FA054B00221A60C6
S3152000267080BD00BF000C004004650120FC640120E1
S3152000268000650120106501201C65012080B500AF82
S31520002690124803F05BFE03461A46114B1A60114B93
S315200026A001221A60104B00221A60104B9B68002BE7
S315200026B006D00E4B9B680E4A926802211046984718
S315200026C0084B00221A60084B1B68002B01D000F033
S315200026D0F5F9054B00221A6080BD00BF000C0040B2
S315200026E004650120FC64012000650120106501209D
S315200026F01C65012080B485B000AF78603960002366
S31520002700FB603B681B68BB6004E0BB68FB60BB6882
S315200027101B68BB60BB68002B05D0BB689A687B68CA
S315200027209B689A42F1DD7B68BA681A60FB68002BC9
S3152000273003D13B687A681A6002E0FB687A681A60FF
S3152000274000BF1437BD465DF8047B704780B485B062
S3152000275000AF786039600023FB603B681B68BB6074
S3152000276004E0BB68FB60BB681B68BB60BB68002BD2
S3152000277005D0BB685A687B685B689A42F1DD7B6846
S31520002780BA681A60FB68002B03D13B687A681A6026
S3152000279002E0FB687A681A6000BF1437BD465DF810
S315200027A0047B704780B584B000AF78607B681B6877
S315200027B0FB60FB68002B04D0FB681A687B681A60F4
S315200027C00CE00948FFF772FD00220221074802F0BB
S315200027D086FC0748FFF76AFD30BFFDE7FB68184611
S315200027E01037BD4680BD00BFE4B60020000402407D
S315200027F0F0B6002080B584B000AF78607B681B6897
S31520002800FB60FB68002B04D0FB681A687B681A60A3
S315200028100CE00948FFF74AFD00220221074802F092
S315200028205EFC0748FFF742FD30BFFDE7FB68184610
S315200028301037BD4680BD00BFE4B60020000402402C
S31520002840FCB6002080B483B000AF786039603B6866
S315200028501A687B681A603B687A681A6000BF0C3772
S31520002860BD465DF8047B704780B483B000AF7860C6
S3152000287039603B681A687B689A603B687A681A6098
S3152000288000BF0C37BD465DF8047B704780B485B029
S3152000289000AF78607B681B68FB60FB689A687B6882
S315200028A01A60FB6818461437BD465DF8047B7047EE
S315200028B080B485B000AF786039600023FB603B6848
S315200028C01B68BB6004E0BB68FB60BB681B68BB6021
S315200028D0BB68002B03D0BA687B689A42F3D1BB68E9
S315200028E0002B0DD0FB68002B04D0BB681A68FB6850
S315200028F01A6003E0BB681A683B681A60012300E08F
S31520002900002318461437BD465DF8047B704780B512
S3152000291082B000AF02211E4804F027FE1C4803F0B7
S3152000292015FD03467B6007E01A48FFF73BFF034689
S3152000293019491846FFF7DEFE164B1B68002B06D0FA
S31520002940144B1B685A687B68D31A002BECDD114B9D
S315200029501B68002B16D00E4803F0F8FC03463B609C
S315200029600C4B1B685B683A689A4204DD0022022100
S315200029700A4802F0B4FB074B1B685B6819460448FB
S3152000298004F023F800F09AF800BF0837BD4680BD52
S31520002990000C0040F8640120F46401200004024089
S315200029A00346024A136010DFF74600BF0C6501207C
S315200029B00346054A1360054B5B68044A43F080537F
S315200029C05360F74600BF00BF0C65012000ED00E014
S315200029D080B582B000AF7860094B5B68C3F308030B
S315200029E0002B03D17868FFF7DBFF02E07868FFF75A
S315200029F0DFFFFFF708FD00BF0837BD4680BD00BFDB
S31520002A0000ED00E090B585B000AF234B1C6823484D
S31520002A10FFF7C8FE0346E360E368BB60FFF7F3FCFD
S31520002A20BB68D868BB681969BB685B691A4600F041
S31520002A3015F9FFF7D9FC1A49B868FFF703FF194BB8
S31520002A401B689B68DB687B60144B1B68002B0AD0D5
S31520002A507B68002BD9D0114B1B689A687B689B68D2
S31520002A60D31A002BD1DD0F48FFF710FF03460E497E
S31520002A701846FFF7F9FE0B4B1B68FB6003E0FB686B
S31520002A801B691B68FB60FB681B69002BF7D1F86884
S31520002A90FFF79EFFB9E700BFF0DF0020F4640120B6
S31520002AA0E4DF0020ECDF0020E8DF002080B500AF67
S31520002AB000F004F8FFF7A7FC30BFFBE780B582B033
S31520002AC000AF144B1B68DB687B60134B1B68002B25
S31520002AD01BD0124B1B68002B17D07B68002B07D00E
S31520002AE00D4B1B689A687B689B68D31A002B0CDAFF
S31520002AF00A48FFF7CBFE034606491846FFF7B4FE01
S31520002B00044B1B681846FFF763FF00BF0837BD4616
S31520002B1080BD00BFECDF0020F4640120E8DF002048
S31520002B2080B588B000AFF860B9607A603B60EFF39B
S31520002B3012833B613B691B09012B14BF0123002330
S31520002B40DBB2FB77FFF750FC3A48FFF753FEB8613C
S31520002B50BB697A68DA60BB693A681A61BB69BA6A86
S31520002B605A61354B1B68002B04D1344B1B68DB683C
S31520002B705B6801E0324B1B68FA681A44BB695A60ED
S31520002B80BB695A68BB68002B01DDBB6801E06FF0AA
S31520002B9000431A44BB699A602A4803F0D7FB0346D0
S31520002BA07B61BB695A687B69D31A002B16DD2649DF
S31520002BB0B869FFF7CBFD244B1B685B687A699A429C
S31520002BC004DD00220221214802F089FA1E4B1B68EF
S31520002BD05B6819461B4803F0F8FE21E01C49B869DA
S31520002BE0FFF788FDFB7F002B1AD01A4B1B68002BA2
S31520002BF016D0174B1B689A68174B1B68DB689B68B7
S31520002C00D31A002B0CDA1348FFF740FE034612496D
S31520002C101846FFF729FE104B1B681846FFF7D8FE0B
S31520002C20FB7F002B01D0FFF7EEFBBB691846203750
S31520002C30BD4680BDE4DF0020FC640120F0DF0020DB
S31520002C4004650120000C0040F864012000040240C5
S31520002C50F4640120E8DF0020ECDF002080B588B096
S31520002C6000AFF860B9607A60EFF312833B613B698D
S31520002C701B09012B14BF01230023DBB2FB76FFF7D0
S31520002C80B3FBFB681B68FB61FB69002B37D003E0B5
S31520002C90FB691B691B68FB61FB691B69002BF7D16C
S31520002CA0304B1B68FA699A4202D0FB7E002B07D173
S31520002CB0FB7E002B01D0FFF7A6FB4FF0FF334DE044
S31520002CC0FB685B68002B03D0FB685B6800221A61F7
S31520002CD0244B1A68FB685A60224B1B68FA681A61F3
S31520002CE0F869FFF775FE1F4B1B68DB68002B06D1C2
S31520002CF0FB7E002B01D0FFF786FB00232EE0194B2D
S31520002D001A68FB681A60FB7E002B05D0FB685B689F
S31520002D10012B01D0FFF777FBBB687968F8689847E5
S31520002D207861FFF761FBFB6800221A60FB685B682D
S31520002D30FB61FB69002B0BD0FB69012B08D0FB68DC
S31520002D4000225A60FB6900221A61F869FFF740FEEB
S31520002D50FB7E002B01D0FFF756FB7B6918462037F8
S31520002D60BD4680BDF0DF002080B586B000AF78601C
S31520002D70EFF31283FB60FB681B09012B14BF0123B1
S31520002D800023DBB2FB74FFF72FFB1F497868FFF7A0
S31520002D908FFD0346002B06D11C497868FFF788FD76
S31520002DA00346002B04D01A497868FFF74BFD21E033
S31520002DB0184B1B687B611AE0174B1B687A699A428D
S31520002DC012D07B69DB687A689A420DD17B691A69D1
S31520002DD07B68DB689A4207D17B690022DA600C495E
S31520002DE07868FFF72FFD05E07B699B687B617B692F
S31520002DF0002BE1D1FB7C002B01D0FFF704FB00BFA9
S31520002E001837BD4680BD00BFF8640120F464012058
S31520002E10E4DF0020ECDF0020F0DF002080B485B066
S31520002E2000AF7860EFF31283FB60FB681B09012B70
S31520002E3004D0074B1B68DB685B6801E0054B1B6809
S31520002E407A68136000BF1437BD465DF8047B70476F
S31520002E50F0DF00200465012080B485B000AF7860E3
S31520002E60EFF31283FB60FB681B09012B04D0084B90
S31520002E701B68DB685B6801E0064B1B687A68126892
S31520002E809B1A18461437BD465DF8047B704700BF71
S31520002E90F0DF00200465012080B584B000AFEFF399
S31520002EA012837B607B681B09012B14BF012300233F
S31520002EB0DBB2FB73FFF798FA0C4803F047FA034698
S31520002EC0BB60FB7B002B01D0FFF79DFAFB7B002B21
S31520002ED004D0074B1B68DB685B6801E0054B1B6869
S31520002EE0BA68D31A18461037BD4680BD000C00407C
S31520002EF0F0DF00200465012080B582B000AF0023FA
S31520002F007B6012E07B685A1C13465B001344DB008F
S31520002F10444A991843487A6813465B001344DB00F9
S31520002F20034419607B6801337B607B681C2BE9DDD9
S31520002F303C4B0022C3F8B82200237B6013E07B6859
S31520002F405A1C13469B0013449B00374A991836484F
S31520002F507A6813469B0013449B0003440833196088
S31520002F607B6801337B607B68022BE8DD2E4B0022D9
S31520002F705A6400237B6030E02B497A6813469B0015
S31520002F8013449B000B4404337A681A607A6813460C
S31520002F909B0013449B00244A1A447B685B03234905
S31520002FA00B4419461046FFF75FFA7A6813469B00D2
S31520002FB013449B001C4A13441D491846FFF787FA01
S31520002FC019497A6813469B0013449B000B4410331F
S31520002FD000221A607B6801337B607B68032BCBDD84
S31520002FE0144B4FF0FF325A60124B00229A60114B5D
S31520002FF000221A610F4B0022DA600F48FFF756F9BC
S315200030000E48FFF753F90E48FFF750F90A48FFF725
S315200030104DF90948FFF74AF9FFF76BFA00BF083761
S31520003020BD4680BDBCE100208CE40020E0E4002009
S31520003030052A0020E064012008B700200CB70020F4
S3152000304018B7002080B586B000AFF860B960134687
S31520003050FB71FB79022B41D8EFF312833B613B696D
S315200030601B09012B14BF01230023DBB2FB75FFF7DD
S31520003070BBF9FB79022B0ED0022B10DC002B02D0E1
S31520003080012B04D00BE0174B174A1A6014E0174B9C
S31520003090174A1A6010E0174B174A1A600CE01748B7
S315200030A0FFF704F900220221154802F018F8154806
S315200030B0FFF7FCF830BFFDE7FB791349FA6841F8C2
S315200030C02320FB791149BA6841F82320FB680122A5
S315200030D05A60FB7D002B01D0FFF795F900BF18370A
S315200030E0BD4680BDD4C00120BD25002090C0012052
S315200030F0252600209CC001208D260020E4B6002035
S315200031000004024030B700201C6501201065012014
S3152000311080B586B002AFF860B9607A60FFF764F9CF
S31520003120FFF7EAFEBB68002B16D00F4803F00EF916
S3152000313003461A460D4B1A600D4B01221A607B6816
S315200031400093BB68FA6800210020FFF7E9FC084BD2
S3152000315000221A60FFF7B2FCFFF7A8FC00231846EE
S315200031601037BD4680BD00BF000C0040046501201D
S31520003170FC64012080B586B002AF7860294BFB60E5
S315200031807B68DB69002B03D1FB6800221A7029E0DB
S315200031907B685B6A002B41D17B689B69002B03D13E
S315200031A0FB6800221A701DE07B685B69002B0CD03F
S315200031B07B689B68DAB27B685B69DBB212FB03F340
S315200031C0DBB25AB2FB681A7002E0FB6800221A7062
S315200031D07B685B69002B0CBF01230023DBB21A46F8
S315200031E07B685A617B681B6A002B01D00A2300E0AA
S315200031F00023BB607B685B6A002B10D17B681B6950
S31520003200094A82FB03129210DB17D01A002300937F
S31520003210064B7A68B968FFF783FC00E000BF1037D9
S31520003220BD4680BD1C740040676666667531002009
S3152000323080B588B002AF78602B4B3B617B68DB6A38
S315200032401846FEF73DFF00237B6128E07B689B69DB
S31520003250002B03D13B6900221A701DE07B685B6955
S31520003260002B0CD07B689B68DAB27B685B69DBB28B
S3152000327012FB03F3DBB25AB23B691A7002E03B69D8
S3152000328000221A707B685B69002B0CBF0123002388
S31520003290DBB21A467B685A617B6901337B617B69A5
S315200032A0B3F57A7FD2DB7B68DB6A1846FEF71CFF14
S315200032B07B681B6A002B01D00A2300E00023FB60F9
S315200032C07B681B69094A82FB03129210DB17D01A0E
S315200032D000230093064B7A68F968FFF721FC00BFAC
S315200032E01837BD4680BD00BF1C7400406766666601
S315200032F03132002080B483B000AF786039607B68BB
S315200033003A689A6100BF0C37BD465DF8047B70476A
S3152000331080B483B000AF786039607B683A68DA6140
S3152000332000BF0C37BD465DF8047B704780B483B080
S3152000333000AF786039607B683A689A607B689B68E2
S31520003340002B02DC7B6801229A607B689B68142B29
S3152000335003DD7B6814229A6000BF00BF0C37BD4690
S315200033605DF8047B704780B483B000AF7860396025
S315200033707B683A681A6200BF0C37BD465DF8047B4D
S31520003380704780B483B000AF786039607B683A6854
S315200033901A6100BF0C37BD465DF8047B704780B4C8
S315200033A083B000AF78607B68DB6918460C37BD4672
S315200033B05DF8047B704780B483B000AF78607B688B
S315200033C01B6918460C37BD465DF8047B704780B4F0
S315200033D083B000AF78607B681B6A18460C37BD4601
S315200033E05DF8047B704780B483B000AF78603960A5
S315200033F07B683A685A6200BF0C37BD465DF8047B8D
S31520003400704700BF314900E03149EFF3088020EDD5
S31520003410108A7246EFF3118320E9FC0F2D4FD7F85F
S315200034200080C8F800001EE00846FEF73FFF2A4845
S31520003430FEF73CFF2948FEF739FFD8F80400FEF7CF
S3152000344081FF2748FEF732FFD8F80000FEF74BFF32
S315200034502448FEF72BFFD8F800000068FEF743FF4C
S315200034601D48FEF723FFDFF88080D8F80080C7F8D4
S31520003470008018E01D48FEF719FFD8F80400FEF773
S3152000348061FF1B48FEF712FFD8F80000FEF72BFF5E
S315200034901448FEF70BFFD8F800000068FEF723FF5C
S315200034A00D48FEF703FF134A536843F00063536049
S315200034B000BFD8F80000B0E8FC0F83F311889646C9
S315200034C0B0EC108A80F3088870470000F4DF0020F3
S315200034D005E00020F0DF002075E0002026E0002037
S315200034E03EE0002046E000200C6501204FE0002051
S315200034F064E0002000ED00E080B582B000AF786087
S315200035007B680E4A93420AD101214FF0007002F0E7
S3152000351045FB00214FF0007002F040FB09E001213D
S315200035204FF0806002F03AFB00214FF0806002F0FD
S3152000353035FB00BF0837BD4680BD00BF0064004094
S3152000354080B485B000AF786039600023FB73002318
S31520003550BB607B681B6823F002027B681A607B686D
S315200035601B6843F001027B681A6002E0BB680133E6
S31520003570BB607B685B6803F00103012B04D0BB684A
S315200035804FF6FF729342F1D17B685B6803F001032B
S31520003590012B02D00023FB739CE03B689B79012B17
S315200035A006D17B681B6843F080027B681A6005E0C1
S315200035B07B681B6823F080027B681A603B68DB7996
S315200035C0012B06D17B681B6843F040027B681A609A
S315200035D005E07B681B6823F040027B681A603B6825
S315200035E01B7A012B06D17B681B6843F020027B687F
S315200035F01A6005E07B681B6823F020027B681A604E
S315200036003B685B7A012B06D17B681B6843F010026E
S315200036107B681A6005E07B681B6823F010027B68D4
S315200036201A603B689B7A012B06D17B681B6843F0A6
S3152000363008027B681A6005E07B681B6823F0080295
S315200036407B681A603B68DB7A012B06D17B681B6896
S3152000365043F004027B681A6005E07B681B6823F050
S3152000366004027B681A603B689B789A073B68DB7884
S315200036701B061A433B681B791B041A433B685B797C
S315200036801B051A433B681B88013B1A437B68DA619A
S315200036907B681B6823F001027B681A600023BB60ED
S315200036A002E0BB680133BB607B685B6803F0010303
S315200036B0012B04D1BB684FF6FF729342F1D17B6890
S315200036C05B6803F00103012B02D10023FB7301E0A9
S315200036D00123FB73FB7B18461437BD465DF8047B3C
S315200036E0704790B484B000AF78600023FB607B689D
S315200036F09B7A1A4601239340FB605A4BD3F800323B
S31520003700584A43F00103C2F80032564BD3F81C2224
S31520003710FB68DB4353491340C1F81C327B681B7B93
S31520003720002B29D14F4BD3F80C22FB68DB434D49A4
S315200037301340C1F80C327B68DB881B047A685288F8
S31520003740144648497A68927A104643EA040200F100
S31520003750480341F833207B689B881B047A681288CB
S31520003760144640497A68927A104643EA040200F1E8
S315200037704803DB000B445A607B681B7B012B28D156
S31520003780384BD3F80C223749FB681343C1F80C3267
S315200037907B681B881B047A685288144631497A68EC
S315200037A0927A104643EA040200F1480341F8332096
S315200037B07B689B881B047A68D288144629497A68D4
S315200037C0927A104643EA040200F14803DB000B44D8
S315200037D05A607B68DB7A002B09D1224BD3F804226E
S315200037E0FB68DB431F491340C1F8043207E01D4B39
S315200037F0D3F804221B49FB681343C1F804327B68C3
S315200038001B89002B08D1174BD3F81422FB68DB4306
S3152000381014491340C1F814327B681B89012B07D148
S31520003820104BD3F814220F49FB681343C1F8143206
S315200038307B685B7B012B07D10A4BD3F81C220949F5
S31520003840FB681343C1F81C32064BD3F80032054AF5
S3152000385023F00103C2F8003200BF1037BD4690BCEA
S31520003860704700BF0064004080B483B000AF78602A
S315200038707B6800229A717B680022DA717B680022BD
S315200038801A727B6800225A727B6800229A727B68C1
S315200038900022DA727B6800229A707B680022DA7036
S315200038A07B6803221A717B6802225A717B68012287
S315200038B01A8000BF0C37BD465DF8047B704780B484
S315200038C083B000AF0346FB71144BD3F80032134A82
S315200038D043F00103C2F80032104BD3F800320F4AEE
S315200038E023F47C5323F00E03C2F800320B4BD3F89B
S315200038F00022FB791B0209491343C1F80032074B0A
S31520003900D3F80032054A23F00103C2F8003200BF83
S315200039100C37BD465DF8047B704700BF006400404D
S3152000392080B483B000AF78600B46FB70FB78002B29
S3152000393006D07B681B6843F480327B681A6005E0FA
S315200039407B681B6823F480327B681A6000BF0C37C3
S31520003950BD465DF8047B704780B483B000AF7860C5
S315200039600B46FB70FB78002B1ED07B681B6843F050
S3152000397080027B681A607B68D3F8843143F48072B6
S315200039807B68C3F884217B68D3F8943143F4807232
S315200039907B68C3F894217B68D3F8A43143F4807202
S315200039A07B68C3F8A4211DE07B681B6823F0800296
S315200039B07B681A607B68D3F8843123F480727B6835
S315200039C0C3F884217B68D3F8943123F480727B6812
S315200039D0C3F894217B68D3F8A43123F480727B68E2
S315200039E0C3F8A42100BF0C37BD465DF8047B7047A1
S315200039F080B485B000AF786039600023FB737B68A4
S31520003A009B6803F08063B3F1806F02D10023FB73C0
S31520003A1015E07B689B6803F00063B3F1006F02D169
S31520003A200123FB730BE07B689B6803F08053B3F1A3
S31520003A30805F02D10223FB7301E00423FB73FB7B2F
S31520003A40042B00F09F80FB7B7A6818331B011344FC
S31520003A501A68FB7B02F00102796818331B010B44BC
S31520003A601A603B681B7A002B13D1FB7B7A681833CC
S31520003A701B01134419683B681B685B053A68527A38
S31520003A801A43FB7B0A43796818331B010B441A60DF
S31520003A9015E0FB7B7A6818331B01134419683B68D1
S31520003AA05B68DB003A68127A13433A68527A1A4303
S31520003AB0FB7B0A43796818331B010B441A603B6869
S31520003AC09B7A03F00F03DAB23B689A72FB7B7A6823
S31520003AD018331B01134404331A68FB7B22F00F02B0
S31520003AE0796818331B010B4404331A60FB7B7A6810
S31520003AF018331B01134404331A683B689B7A194612
S31520003B00FB7B0A43796818331B010B4404331A6084
S31520003B103B689B7B1A063B685B7B1B041A433B680E
S31520003B201B7B1B021A433B68DB7A1946FB7B0A4345
S31520003B3079681B010B4403F5C4731A603B689B7CB0
S31520003B401A063B685B7C1B041A433B681B7C1B02E2
S31520003B501A433B68DB7B1946FB7B0A4379681B01CA
S31520003B600B4403F5C6731A60FB7B7A6818331B0176
S31520003B7013441A68FB7B42F00102796818331B0153
S31520003B800B441A60FB7B18461437BD465DF8047B50
S31520003B90704780B485B000AF78600B46FB70002379
S31520003BA0FB60FB78022B12D0022B16DC002B02D0F6
S31520003BB0012B06D011E07B689A68314B1340FB60DD
S31520003BC00EE07B689A682F4B1340FB6008E07B6809
S31520003BD09A682D4B1340FB6002E00023FB6000BF78
S31520003BE0FB68294A93423DD0FB68274A93423CD83A
S31520003BF0FB68264A93422CD0FB68244A934234D849
S31520003C00FB68204A93422AD0FB681E4A93422CD84E
S31520003C10FB681F4A934219D0FB681D4A934224D859
S31520003C20FB68174A934217D0FB68154A93421CD863
S31520003C30FB68002B04D0FB68164A934203D014E09D
S31520003C400223FB6014E00023FB6011E00023FB60ED
S31520003C500EE00023FB600BE00123FB6008E001235C
S31520003C60FB6005E00123FB6002E00023FB6000BF50
S31520003C70FB68DBB218461437BD465DF8047B7047F7
S31520003C8003000004000300080000031000000110D8
S31520003C90000100080100000480B483B000AF786002
S31520003CA00B46FB70FB78022B14D0022B19DC002B61
S31520003CB002D0012B07D014E07B689B6843F080027A
S31520003CC07B689A600EE07B689B6843F400427B68C1
S31520003CD09A6007E07B689B6843F400027B689A60E1
S31520003CE000E000BF00BF0C37BD465DF8047B70477F
S31520003CF080B485B000AFF8600B467A60FB72FB7A21
S31520003D00FA681B331B0113441B68DBB203F0040360
S31520003D10DAB27B681A727B681B7A002B0BD1FB7A8E
S31520003D20FA681B331B0113441B685B0DC3F30A029D
S31520003D307B681A600AE0FB7AFA681B331B0113447E
S31520003D401B68DB0823F060427B685A60FB7AFA68BE
S31520003D501B331B0113441B68DBB203F00203DAB2E8
S31520003D607B685A72FB7AFA681B331B0113440433AF
S31520003D701B68DBB203F00F03DAB27B689A72FB7A18
S31520003D80FA681B331B01134404331B681B0ADAB27F
S31520003D907B68DA74FB7AFA681B01134403F5DC733B
S31520003DA01B68DAB27B68DA72FB7AFA681B01134465
S31520003DB003F5DC731B681B0ADAB27B681A73FB7A7D
S31520003DC0FA681B01134403F5DC731B681B0CDAB27B
S31520003DD07B685A73FB7AFA681B01134403F5DC737C
S31520003DE01B681B0EDAB27B689A73FB7AFA681B0192
S31520003DF0134403F5DE731B68DAB27B68DA73FB7A49
S31520003E00FA681B01134403F5DE731B681B0ADAB23A
S31520003E107B681A74FB7AFA681B01134403F5DE7378
S31520003E201B681B0CDAB27B685A74FB7AFA681B0192
S31520003E30134403F5DE731B681B0EDAB27B689A7493
S31520003E40FB7A002B06D1FB68DB6843F02002FB6877
S31520003E50DA6005E0FB681B6943F02002FB681A6103
S31520003E6000BF1437BD465DF8047B704780B483B02D
S31520003E7000AF78600B46FB70FB78002B06D17B6881
S31520003E80DB6843F020027B68DA6005E07B681B690B
S31520003E9043F020027B681A6100BF0C37BD465DF8EF
S31520003EA0047B704780B485B000AF78600B46FB700A
S31520003EB00023FB73FB78002B06D17B68DB68DBB223
S31520003EC003F00303FB730BE0FB78012B06D17B6821
S31520003ED01B69DBB203F00303FB7301E00023FB73D2
S31520003EE0FB7B18461437BD465DF8047B704780B4CB
S31520003EF085B000AF78600B46FB700023FB734FF64E
S31520003F00FF73BB60FB78002B20D17B681B6823F0F6
S31520003F10030343F001027B681A6002E0BB68013BA1
S31520003F20BB607B685B6803F00303012B02D0BB6890
S31520003F30002BF3D17B685B6803F00303012B02D0CF
S31520003F400023FB734AE00123FB7347E0FB78012B38
S31520003F501ED17B681B6823F003027B681A6002E08F
S31520003F60BB68013BBB607B685B6803F00303002BE7
S31520003F7002D0BB68002BF3D17B685B6803F0030398
S31520003F80002B02D00023FB7328E00123FB7325E0DE
S31520003F90FB78022B20D17B681B6823F0030343F0B8
S31520003FA002027B681A6002E0BB68013BBB607B684B
S31520003FB05B6803F00303022B02D0BB68002BF3D10E
S31520003FC07B685B6803F00303022B02D00023FB739C
S31520003FD004E00123FB7301E00023FB73FB7B1846FF
S31520003FE01437BD465DF8047B704780B485B000AFBA
S31520003FF078600023FB737B681B6823F0030343F080
S3152000400002027B681A607B685B6803F00303022B5D
S3152000401001D10123FB73FB7B18461437BD465DF89F
S31520004020047B704780B485B000AF78604FF6FF738D
S31520004030FB600023FB727B681B6823F002027B680F
S315200040401A6002E0FB68013BFB607B685B6803F05B
S315200040500203022B02D1FB68002BF3D17B685B683D
S3152000406003F00203022B01D00123FB72FB7A1846D0
S315200040701437BD465DF8047B704780B485B000AF29
S3152000408078600023FB737B689B69DBB203F07003C7
S31520004090FB73FB7B18461437BD465DF8047B7047DF
S315200040A080B485B000AF78600023FB737B689B6982
S315200040B01B0EFB73FB7B18461437BD465DF8047B4D
S315200040C0704780B485B000AF78600023FB737B68AF
S315200040D09B691B0CFB73FB7B18461437BD465DF8AA
S315200040E0047B704780B485B000AFF860B960134692
S315200040F0FB71FB79002B06D0FB685A69BB681A4313
S31520004100FB685A6106E0FB685A69BB68DB431A40C4
S31520004110FB685A6100BF1437BD465DF8047B7047C3
S3152000412080B485B000AF786039600023FB733B68AC
S3152000413003F47003002B0DD07B689A693B6813400B
S31520004140C3F31303002B02D00123FB7348E00023A3
S31520004150FB7345E03B6803F08073002B0DD07B6832
S315200041605A683B681340C3F31303002B02D0012384
S31520004170FB7335E00023FB7332E03B6803F00063FA
S31520004180002B0DD07B689A683B681340C3F313035A
S31520004190002B02D00123FB7322E00023FB731FE0D8
S315200041A03B6803F00073002B0DD07B68DA683B6810
S315200041B01340C3F31303002B02D00123FB730FE03C
S315200041C00023FB730CE07B681A693B681340C3F33A
S315200041D01303002B02D00123FB7301E00023FB73A2
S315200041E0FB7B18461437BD465DF8047B704780B4C8
S315200041F085B000AF786039600023FB603B68174AC2
S31520004200934203D17B6800229A6121E03B68C3F385
S315200042101303FB603B6803F00073002B03D07B681D
S31520004220FA68DA6014E03B6803F08063002B03D061
S315200042307B68FA681A610BE03B6803F00063002B89
S3152000424003D07B68FA689A6002E07B68FA685A6055
S3152000425000BF1437BD465DF8047B70477000F03010
S3152000426080B584B000AF786039600023FB737B682B
S315200042705A693B681340002B00F01B813B68B3F55D
S31520004280003F00F0DD803B68B3F5003F00F20E8171
S315200042903B68B3F5803F00F0CA803B68B3F5803FAA
S315200042A000F204813B68B3F5004F00F0F6803B68CE
S315200042B0B3F5004F00F2FA803B68B3F5006F00F0CB
S315200042C0E3803B68B3F5006F00F2F0803B68B3F5FE
S315200042D0806F00F0D0803B68B3F5806F00F2E680F7
S315200042E03B68B3F5007F00F0BD803B68B3F5007FE7
S315200042F000F2DC803B68B3F5807F00F0AA803B6843
S31520004300B3F5807F00F2D2803B68202B4CD83B68E7
S31520004310002B00F0CB803B68013B1F2B00F2C680B0
S3152000432001A252F823F000BFB1430020C34300206E
S31520004330AD440020D5430020AD440020AD440020EC
S31520004340AD440020E7430020AD440020AD440020CA
S31520004350AD440020AD440020AD440020AD440020F3
S31520004360AD440020F9430020AD440020AD44002098
S31520004370AD440020AD440020AD440020AD440020D3
S31520004380AD440020AD440020AD440020AD440020C3
S31520004390AD440020AD440020AD440020AD440020B3
S315200043A0AD4400200B4400203B68402B36D07DE0F6
S315200043B07B689B684249184600F060F90346FB7308
S315200043C079E07B68DB680321184600F057F903463D
S315200043D0FB7370E07B68DB680821184600F04EF915
S315200043E00346FB7367E07B68DB681021184600F004
S315200043F045F90346FB735EE07B681B69032118467B
S3152000440000F03CF90346FB7355E07B681B690821E5
S31520004410184600F033F90346FB734CE07B681B69B2
S315200044201021184600F02AF90346FB7343E07B6807
S315200044305B680821184600F021F90346FB733AE031
S315200044407B685B681021184600F018F90346FB7359
S3152000445031E07B689B690121184600F00FF903467D
S31520004460FB7328E07B689B690221184600F006F959
S315200044700346FB731FE07B689B690421184600F006
S31520004480FDF80346FB7316E07B689B69702118468E
S3152000449000F0F4F80346FB730DE07B685B680421AB
S315200044A0184600F0EBF80346FB7304E00023FB7389
S315200044B001E00023FB73FB7B18461037BD4680BD09
S315200044C00101010080B483B000AF786039603B6899
S315200044D0B3F5003F00F0AA803B68B3F5003F00F239
S315200044E0C3803B68B3F5803F00F09C803B68B3F502
S315200044F0803F00F2B9803B68B3F5004F00F0AD80F5
S315200045003B68B3F5004F00F2AF803B68B3F5006F10
S3152000451000F09C803B68B3F5006F00F2A5803B68F5
S31520004520B3F5806F00F08E803B68B3F5806F00F2A4
S315200045309B803B68B3F5007F00F080803B68B3F535
S31520004540007F00F291803B68B3F5807F72D03B6894
S31520004550B3F5807F00F288803B68202B4AD83B68E1
S31520004560002B00F081803B68013B1F2B7CD801A2E9
S3152000457052F823F0FD4500206946002069460020B8
S31520004580054600206946002069460020694600202D
S315200045900D46002069460020694600206946002015
S315200045A069460020694600206946002069460020A9
S315200045B06946002069460020694600206946002099
S315200045C06946002069460020694600206946002089
S315200045D06946002069460020694600206946002079
S315200045E06946002069460020694600206946002069
S315200045F0154600203B68402B10D035E07B681E4ACC
S315200046009A6032E07B680822DA602EE07B6810220E
S31520004610DA602AE07B6808221A6126E07B6810228D
S315200046201A6122E07B6808225A601EE07B6810220D
S315200046305A601AE07B6804225A6016E07B680422DE
S315200046405A6012E07B6804225A600EE07B680022E2
S315200046509A617B6804225A6007E07B6800229A618F
S315200046607B6804225A6000E000BF00BF0C37BD46BD
S315200046705DF8047B704700BF0101010080B485B05E
S3152000468000AF786039600023FB737A683B6813407B
S31520004690002B02D00123FB7301E00023FB73FB7B7D
S315200046A018461437BD465DF8047B704780B500AFC9
S315200046B001214FF0005001F071FA00214FF0005017
S315200046C001F06CFA00BF80BD80B485B000AF786081
S315200046D039600023FB600023BB60144B1B68FB6022
S315200046E040F6FE727B6802FA03F3DB43FA68134056
S315200046F0FB603B681A683B685B681A433B689B68AB
S315200047001A433B68DB681343BB60BA687B6802FACE
S3152000471003F3FA681343FB60044AFB68136000BF87
S315200047201437BD465DF8047B704700BF0074004017
S3152000473080B483B000AF78607B6800221A607B6803
S3152000474000225A607B6800229A607B680022DA6029
S3152000475000BF0C37BD465DF8047B704780B483B03C
S3152000476000AF78600B46FB70FB78002B09D00D4B11
S315200047701A6801217B6801FA03F30A4913430B6087
S3152000478009E0084B1A6801217B6801FA03F3DB4331
S31520004790044913400B6000BF0C37BD465DF8047B0F
S315200047A0704700BF0074004080B483B000AF7860CB
S315200047B00B46FB70FB78002B0AD00E4B5A687B68A1
S315200047C01B09012101FA03F30A4913434B600AE04E
S315200047D0084B5A687B681B09012101FA03F3DB4366
S315200047E0044913404B6000BF0C37BD465DF8047B7F
S315200047F0704700BF0074004080B483B000AF03460A
S31520004800FB71FB79002B06D0094B5B68084A43F005
S315200048100303536005E0064B5B68054A23F0030358
S31520004820536000BF0C37BD465DF8047B704700BF60
S315200048300074004080B485B000AFF860B9601346BC
S31520004840FB71FB79002B09D00C4B1A68B968FB6801
S3152000485001FA03F3094913430B6009E0074B1A6871
S31520004860B968FB6801FA03F3DB43044913400B6084
S3152000487000BF1437BD465DF8047B704700740040C6
S3152000488080B485B000AF78600B467B800023FB6048
S31520004890084BFB60FA687B6813440833FB60FB68AF
S315200048A01A467B88136000BF1437BD465DF8047B2B
S315200048B0704700BF0074004080B485B000AF7860B8
S315200048C00B467B800023FB60084BFB60FA687B6805
S315200048D013441433FB60FB681A467B88136000BFC1
S315200048E01437BD465DF8047B704700BF0074004056
S315200048F080B485B000AF78600B467B8013463B8042
S315200049000023FB600023BB607B68082B05D17B88D6
S315200049101A023B881343FB6004E07B881A043B8819
S315200049201343FB60074BBB607A68BB681344203394
S31520004930BB60BB68FA681A6000BF1437BD465DF8D5
S31520004940047B70470074004080B485B000AF786067
S315200049500023FB60084BFB607B689A08FB681344C6
S315200049602C33FB60FB681B689BB218461437BD4688
S315200049705DF8047B704700BF0074004080B483B0AC
S3152000498000AF78600B46FB70FB78002B0AD00E4BED
S315200049901A684FF480517B6801FA03F30A491343DE
S315200049A00B600AE0084B1A684FF480517B6801FAC5
S315200049B003F3DB43044913400B6000BF0C37BD46AD
S315200049C05DF8047B704700BF0074004080B485B05A
S315200049D000AFF860B9601346FB71FB79002B09D054
S315200049E00C4B1A68B968FB6801FA03F309491343AB
S315200049F00B6009E0074B1A68B968FB6801FA03F3F4
S31520004A00DB43044913400B6000BF1437BD465DF8F5
S31520004A10047B70470074004080B485B000AF786096
S31520004A2039600023FB730A4B5A6B39687B6801FA9D
S31520004A3003F31340002B02D00123FB7301E0002374
S31520004A40FB73FB7B18461437BD465DF8047B704725
S31520004A500074004080B483B000AF786039600649A6
S31520004A603A687B6802FA03F34B6300BF0C37BD46F6
S31520004A705DF8047B704700BF0074004080B485B0A9
S31520004A8000AF786039600023FB730023BB60104BB6
S31520004A901A6839687B6801FA03F31340BB600C4B34
S31520004AA05A6B39687B6801FA03F31340002B05D053
S31520004AB0BB68002B02D00123FB7301E00023FB73AC
S31520004AC0FB7B18461437BD465DF8047B704700BF54
S31520004AD00074004080B483B000AF78603960064926
S31520004AE03A687B6802FA03F34B6300BF0C37BD4676
S31520004AF05DF8047B704700BF0074004080B400AFAF
S31520004B00094B00221A60084B00225A60064B0022ED
S31520004B109A60054B0022DA60034B044A5A6100BFB3
S31520004B20BD465DF8047B7047003C0140FFFF7F00D7
S31520004B3080B485B000AF78600023FB60344BFB6007
S31520004B407B689B79002B4FD0314B1A687B681B689A
S31520004B50DB432F4913400B602D4B5A687B681B683B
S31520004B60DB432B4913404B607B681B791A46FB6855
S31520004B701344FB60FB6819687B681A68FB680A4364
S31520004B801A60234B9A687B681B68DB4320491340D5
S31520004B908B601F4BDA687B681B68DB431C4913401C
S31520004BA0CB607B685B79102B0ED1194B9A687B689A
S31520004BB01B68174913438B60154BDA687B681B68A3
S31520004BC013491343CB601DE0114BFB607B685B7977
S31520004BD01A46FB681344FB60FB6819687B681A68F1
S31520004BE0FB680A431A600DE07B681B791A46FB684E
S31520004BF01344FB60FB6819687B681B68DA43FB6813
S31520004C000A401A6000BF1437BD465DF8047B704722
S31520004C10003C014080B483B000AF78607B680022FE
S31520004C201A607B6800221A717B680C225A717B6895
S31520004C3000229A7100BF0C37BD465DF8047B704791
S31520004C4080B483B000AF7860054B1A6904497B684D
S31520004C5013430B6100BF0C37BD465DF8047B7047DC
S31520004C60003C014080B485B000AF78600023FB7320
S31520004C70084B5A697B681340002B02D00123FB7333
S31520004C8001E00023FB73FB7B18461437BD465DF815
S31520004C90047B7047003C014080B483B000AF78604D
S31520004CA0044A7B68536100BF0C37BD465DF8047B20
S31520004CB0704700BF003C014080B485B000AF7860EB
S31520004CC00023FB73084B5A697B681340002B02D0E4
S31520004CD00123FB7301E00023FB73FB7B184614378B
S31520004CE0BD465DF8047B7047003C014080B483B02C
S31520004CF000AF7860044A7B68536100BF0C37BD461D
S31520004D005DF8047B704700BF003C014080B582B04F
S31520004D1000AF78607B684B4A934208D1012101207D
S31520004D2000F0DCFE0021012000F0D8FE86E07B6842
S31520004D30454A934208D10121022000F0CFFE0021EE
S31520004D40022000F0CBFE79E07B68404A934208D1EE
S31520004D500121042000F0C2FE0021042000F0BEFE46
S31520004D606CE07B683A4A934208D10121082000F082
S31520004D70B5FE0021082000F0B1FE5FE07B68354AD1
S31520004D80934208D10121102000F0A8FE0021102016
S31520004D9000F0A4FE52E07B682F4A934208D10121FD
S31520004DA0202000F09BFE0021202000F097FE45E009
S31520004DB07B682A4A934208D10121402000F08EFECA
S31520004DC00021402000F08AFE38E07B68244A934286
S31520004DD008D10121802000F081FE0021802000F0F2
S31520004DE07DFE2BE07B681F4A93420AD101214FF4B6
S31520004DF0807000F073FE00214FF4807000F06EFE8C
S31520004E001CE07B68184A93420AD101214FF40070B6
S31520004E1000F064FE00214FF4007000F05FFE0DE00C
S31520004E207B68124A934209D101214FF4806000F039
S31520004E3055FE00214FF4806000F050FE00BF083779
S31520004E40BD4680BD0000024000040240000802402A
S31520004E50000C0240001002400014024000180240DC
S31520004E60001C02400020024000240240002802408C
S31520004E7080B487B000AF7860396000237B6100235F
S31520004E803B610023FB6000237B6176E001227B6986
S31520004E9002FA03F33B613B681B683A691340FB60E7
S31520004EA0FA683B699A4265D17B681A687B695B0020
S31520004EB0032101FA03F3DB431A407B681A607B68FF
S31520004EC01A683B681B7919467B695B0001FA03F374
S31520004ED01A437B681A603B681B79012B03D03B6819
S31520004EE01B79022B2ED17B689A687B695B00032194
S31520004EF001FA03F3DB431A407B689A607B689A6861
S31520004F003B685B7919467B695B0001FA03F31A4318
S31520004F107B689A607B685A687B699BB21946012335
S31520004F208B40DB431A407B685A607B685B683A6833
S31520004F30927911467A6992B201FA02F292B21A4332
S31520004F407B685A607B68DA687B699BB25B000321C9
S31520004F5001FA03F3DB431A407B68DA607B68DA6880
S31520004F603B68DB7919467B695B0001FA03F31A4338
S31520004F707B68DA607B6901337B617B690F2B85D97E
S31520004F8000BF00BF1C37BD465DF8047B704780B468
S31520004F9083B000AF78607B684FF6FF721A607B683B
S31520004FA000221A717B6800225A717B6800229A714E
S31520004FB07B680022DA7100BF0C37BD465DF8047BA2
S31520004FC0704780B485B000AF78600B467B804FF485
S31520004FD08033FB607A88FB681343FB60FA687B6842
S31520004FE0DA617A887B68DA61FA687B68DA617B68DD
S31520004FF0DB69FB607B68DB69FB6000BF1437BD465D
S315200050005DF8047B704780B485B000AF78600B46AE
S315200050107B800023FB737B681A697B881340002BF7
S3152000502002D00123FB7301E00023FB73FB7B1846B0
S315200050301437BD465DF8047B704780B483B000AF5B
S3152000504078607B681B699BB218460C37BD465DF8B5
S31520005050047B704780B485B000AF78600B467B80B8
S315200050600023FB737B685A697B881340002B02D090
S315200050700123FB7301E00023FB73FB7B18461437E7
S31520005080BD465DF8047B704780B483B000AF78607E
S315200050907B685B699BB218460C37BD465DF8047B7E
S315200050A0704780B483B000AF78600B467B807B6806
S315200050B07A881A8300BF0C37BD465DF8047B70479B
S315200050C080B483B000AF78600B467B807B687A889B
S315200050D05A8300BF0C37BD465DF8047B704780B409
S315200050E083B000AF78600B467B8013467B707B785D
S315200050F0002B03D07B687A881A8302E07B687A8843
S315200051005A8300BF0C37BD465DF8047B704780B4D8
S3152000511083B000AF78600B467B807A887B685A61C3
S3152000512000BF0C37BD465DF8047B704780B483B062
S3152000513000AF78600B467B807B685A697B885A4033
S315200051407B685A6100BF0C37BD465DF8047B70470B
S3152000515080B485B000AF78600B467B8013467B70A9
S315200051600023FB600023BB607A787B8803F007036B
S315200051709B0002FA03F3FB607B88DB089BB21A468E
S315200051807B68083253F822207B8803F007039B00B4
S315200051900F2101FA03F3DB437988C90889B208464F
S315200051A002EA03017B6800F1080243F822107B889B
S315200051B0DB089BB21A467B68083253F82230FA681D
S315200051C01343BB607B88DB089BB21A467B68083298
S315200051D0B96843F8221000BF1437BD465DF8047B3A
S315200051E0704700BF80B400AF164B1B68154A43F0CA
S315200051F001031360134B00229A60124B1B68114A5D
S3152000520023F0A85323F4102313600E4B0E4A5A6042
S315200052100C4B0E4AC3F884200A4B0D4AC3F888204B
S31520005220084B1B68074A23F480231360054B002292
S31520005230DA60044B0022C3F88C2000BFBD465DF81F
S31520005240047B7047003802401030002400300020D4
S315200052500030002480B483B000AF0346FB71064BB8
S3152000526000221A70044AFB79137000BF0C37BD4622
S315200052705DF8047B704700BF0238024080B582B0DB
S3152000528000AF00233B600023FB710023BB7131205C
S3152000529000F08AFD0346BB713B6801333B603B68E7
S315200052A0B3F5A04F02D0BB79002BF0D0312000F00F
S315200052B07BFD0346002B02D00123FB7101E0002376
S315200052C0FB71FB7918460837BD4680BD80B485B092
S315200052D000AF0346FB710023FB600A4B1B68FB6093
S315200052E0FB6823F0F803FB60FB79DB00FA681343C5
S315200052F0FB60044AFB68136000BF1437BD465DF8A7
S31520005300047B70470038024080B483B000AF034668
S31520005310FB71044AFB79136000BF0C37BD465DF86C
S31520005320047B70470000474280B483B000AF034639
S31520005330FB710D4B00221A700B4B00221A70FB7961
S31520005340012B02D0042B04D007E0074B01221A7050
S3152000535003E0054B05221A7000BF00BF0C37BD467F
S315200053605DF8047B704700BF7038024080B483B07C
S3152000537000AF0346FB71044AFB79136000BF0C376C
S31520005380BD465DF8047B7047800E474280B485B0E9
S3152000539000AFF860B9607A603B607B689A01BB68B1
S315200053A01A433B685B08013B1B041A43FB681A43FC
S315200053B0BB691B06044913434B6000BF1437BD4627
S315200053C05DF8047B704700BF0038024080B483B08C
S315200053D000AF0346FB71044AFB79136000BF0C370C
S315200053E0BD465DF8047B70476000474280B483B0B9
S315200053F000AF786039607B689A013B681B070549D6
S315200054001343C1F8843000BF0C37BD465DF8047BDA
S31520005410704700BF0038024080B483B000AF034617
S31520005420FB71044AFB79136000BF0C37BD465DF85B
S31520005430047B70476800474280B485B000AFF860AF
S31520005440B9607A60FB689A01BB681B061A437B68C1
S315200054501B0705491343C1F8883000BF1437BD46E2
S315200054605DF8047B704700BF0038024080B483B0EB
S3152000547000AF0346FB71044AFB79136000BF0C376B
S31520005480BD465DF8047B70477000474280B483B008
S3152000549000AF0346FB71044AFB79136000BF0C374B
S315200054A0BD465DF8047B70474C00474280B485B00A
S315200054B000AF786039600023FB600B4B9B68FB6074
S315200054C0FB6823F0EC63FB607A683B681343FA6859
S315200054D01343FB60044AFB68936000BF1437BD4644
S315200054E05DF8047B704700BF0038024080B485B069
S315200054F000AF786039600023FB600B4B9B68FB6034
